{
  "_format": "hh-sol-artifact-1",
  "contractName": "AsenToken",
  "sourceName": "contracts/AsenToken.sol",
  "abi": [
    {
      "inputs": [
        {
          "internalType": "uint256",
          "name": "initialSupply",
          "type": "uint256"
        }
      ],
      "stateMutability": "nonpayable",
      "type": "constructor"
    },
    {
      "anonymous": false,
      "inputs": [
        {
          "indexed": true,
          "internalType": "address",
          "name": "owner",
          "type": "address"
        },
        {
          "indexed": true,
          "internalType": "address",
          "name": "spender",
          "type": "address"
        },
        {
          "indexed": false,
          "internalType": "uint256",
          "name": "value",
          "type": "uint256"
        }
      ],
      "name": "Approval",
      "type": "event"
    },
    {
      "anonymous": false,
      "inputs": [
        {
          "indexed": false,
          "internalType": "address",
          "name": "_account",
          "type": "address"
        }
      ],
      "name": "BlackListAdded",
      "type": "event"
    },
    {
      "anonymous": false,
      "inputs": [
        {
          "indexed": false,
          "internalType": "address",
          "name": "_account",
          "type": "address"
        }
      ],
      "name": "BlackListRemoved",
      "type": "event"
    },
    {
      "anonymous": false,
      "inputs": [
        {
          "indexed": false,
          "internalType": "address",
          "name": "account",
          "type": "address"
        }
      ],
      "name": "Paused",
      "type": "event"
    },
    {
      "anonymous": false,
      "inputs": [
        {
          "indexed": true,
          "internalType": "bytes32",
          "name": "role",
          "type": "bytes32"
        },
        {
          "indexed": true,
          "internalType": "bytes32",
          "name": "previousAdminRole",
          "type": "bytes32"
        },
        {
          "indexed": true,
          "internalType": "bytes32",
          "name": "newAdminRole",
          "type": "bytes32"
        }
      ],
      "name": "RoleAdminChanged",
      "type": "event"
    },
    {
      "anonymous": false,
      "inputs": [
        {
          "indexed": true,
          "internalType": "bytes32",
          "name": "role",
          "type": "bytes32"
        },
        {
          "indexed": true,
          "internalType": "address",
          "name": "account",
          "type": "address"
        },
        {
          "indexed": true,
          "internalType": "address",
          "name": "sender",
          "type": "address"
        }
      ],
      "name": "RoleGranted",
      "type": "event"
    },
    {
      "anonymous": false,
      "inputs": [
        {
          "indexed": true,
          "internalType": "bytes32",
          "name": "role",
          "type": "bytes32"
        },
        {
          "indexed": true,
          "internalType": "address",
          "name": "account",
          "type": "address"
        },
        {
          "indexed": true,
          "internalType": "address",
          "name": "sender",
          "type": "address"
        }
      ],
      "name": "RoleRevoked",
      "type": "event"
    },
    {
      "anonymous": false,
      "inputs": [
        {
          "indexed": true,
          "internalType": "address",
          "name": "from",
          "type": "address"
        },
        {
          "indexed": true,
          "internalType": "address",
          "name": "to",
          "type": "address"
        },
        {
          "indexed": false,
          "internalType": "uint256",
          "name": "value",
          "type": "uint256"
        }
      ],
      "name": "Transfer",
      "type": "event"
    },
    {
      "anonymous": false,
      "inputs": [
        {
          "indexed": false,
          "internalType": "address",
          "name": "account",
          "type": "address"
        }
      ],
      "name": "Unpaused",
      "type": "event"
    },
    {
      "inputs": [],
      "name": "DEFAULT_ADMIN_ROLE",
      "outputs": [
        {
          "internalType": "bytes32",
          "name": "",
          "type": "bytes32"
        }
      ],
      "stateMutability": "view",
      "type": "function"
    },
    {
      "inputs": [],
      "name": "PAUSER_ROLE",
      "outputs": [
        {
          "internalType": "bytes32",
          "name": "",
          "type": "bytes32"
        }
      ],
      "stateMutability": "view",
      "type": "function"
    },
    {
      "inputs": [
        {
          "internalType": "address",
          "name": "_account",
          "type": "address"
        }
      ],
      "name": "addToBlackList",
      "outputs": [],
      "stateMutability": "nonpayable",
      "type": "function"
    },
    {
      "inputs": [
        {
          "internalType": "address",
          "name": "owner",
          "type": "address"
        },
        {
          "internalType": "address",
          "name": "spender",
          "type": "address"
        }
      ],
      "name": "allowance",
      "outputs": [
        {
          "internalType": "uint256",
          "name": "",
          "type": "uint256"
        }
      ],
      "stateMutability": "view",
      "type": "function"
    },
    {
      "inputs": [
        {
          "internalType": "address",
          "name": "spender",
          "type": "address"
        },
        {
          "internalType": "uint256",
          "name": "amount",
          "type": "uint256"
        }
      ],
      "name": "approve",
      "outputs": [
        {
          "internalType": "bool",
          "name": "",
          "type": "bool"
        }
      ],
      "stateMutability": "nonpayable",
      "type": "function"
    },
    {
      "inputs": [
        {
          "internalType": "address",
          "name": "account",
          "type": "address"
        }
      ],
      "name": "balanceOf",
      "outputs": [
        {
          "internalType": "uint256",
          "name": "",
          "type": "uint256"
        }
      ],
      "stateMutability": "view",
      "type": "function"
    },
    {
      "inputs": [],
      "name": "decimals",
      "outputs": [
        {
          "internalType": "uint8",
          "name": "",
          "type": "uint8"
        }
      ],
      "stateMutability": "view",
      "type": "function"
    },
    {
      "inputs": [
        {
          "internalType": "address",
          "name": "spender",
          "type": "address"
        },
        {
          "internalType": "uint256",
          "name": "subtractedValue",
          "type": "uint256"
        }
      ],
      "name": "decreaseAllowance",
      "outputs": [
        {
          "internalType": "bool",
          "name": "",
          "type": "bool"
        }
      ],
      "stateMutability": "nonpayable",
      "type": "function"
    },
    {
      "inputs": [
        {
          "internalType": "bytes32",
          "name": "role",
          "type": "bytes32"
        }
      ],
      "name": "getRoleAdmin",
      "outputs": [
        {
          "internalType": "bytes32",
          "name": "",
          "type": "bytes32"
        }
      ],
      "stateMutability": "view",
      "type": "function"
    },
    {
      "inputs": [
        {
          "internalType": "bytes32",
          "name": "role",
          "type": "bytes32"
        },
        {
          "internalType": "address",
          "name": "account",
          "type": "address"
        }
      ],
      "name": "grantRole",
      "outputs": [],
      "stateMutability": "nonpayable",
      "type": "function"
    },
    {
      "inputs": [
        {
          "internalType": "bytes32",
          "name": "role",
          "type": "bytes32"
        },
        {
          "internalType": "address",
          "name": "account",
          "type": "address"
        }
      ],
      "name": "hasRole",
      "outputs": [
        {
          "internalType": "bool",
          "name": "",
          "type": "bool"
        }
      ],
      "stateMutability": "view",
      "type": "function"
    },
    {
      "inputs": [
        {
          "internalType": "address",
          "name": "spender",
          "type": "address"
        },
        {
          "internalType": "uint256",
          "name": "addedValue",
          "type": "uint256"
        }
      ],
      "name": "increaseAllowance",
      "outputs": [
        {
          "internalType": "bool",
          "name": "",
          "type": "bool"
        }
      ],
      "stateMutability": "nonpayable",
      "type": "function"
    },
    {
      "inputs": [],
      "name": "name",
      "outputs": [
        {
          "internalType": "string",
          "name": "",
          "type": "string"
        }
      ],
      "stateMutability": "view",
      "type": "function"
    },
    {
      "inputs": [],
      "name": "pause",
      "outputs": [],
      "stateMutability": "nonpayable",
      "type": "function"
    },
    {
      "inputs": [],
      "name": "paused",
      "outputs": [
        {
          "internalType": "bool",
          "name": "",
          "type": "bool"
        }
      ],
      "stateMutability": "view",
      "type": "function"
    },
    {
      "inputs": [
        {
          "internalType": "address",
          "name": "_account",
          "type": "address"
        }
      ],
      "name": "removeFromBlackList",
      "outputs": [],
      "stateMutability": "nonpayable",
      "type": "function"
    },
    {
      "inputs": [
        {
          "internalType": "bytes32",
          "name": "role",
          "type": "bytes32"
        },
        {
          "internalType": "address",
          "name": "account",
          "type": "address"
        }
      ],
      "name": "renounceRole",
      "outputs": [],
      "stateMutability": "nonpayable",
      "type": "function"
    },
    {
      "inputs": [
        {
          "internalType": "bytes32",
          "name": "role",
          "type": "bytes32"
        },
        {
          "internalType": "address",
          "name": "account",
          "type": "address"
        }
      ],
      "name": "revokeRole",
      "outputs": [],
      "stateMutability": "nonpayable",
      "type": "function"
    },
    {
      "inputs": [
        {
          "internalType": "bytes4",
          "name": "interfaceId",
          "type": "bytes4"
        }
      ],
      "name": "supportsInterface",
      "outputs": [
        {
          "internalType": "bool",
          "name": "",
          "type": "bool"
        }
      ],
      "stateMutability": "view",
      "type": "function"
    },
    {
      "inputs": [],
      "name": "symbol",
      "outputs": [
        {
          "internalType": "string",
          "name": "",
          "type": "string"
        }
      ],
      "stateMutability": "view",
      "type": "function"
    },
    {
      "inputs": [],
      "name": "totalSupply",
      "outputs": [
        {
          "internalType": "uint256",
          "name": "",
          "type": "uint256"
        }
      ],
      "stateMutability": "view",
      "type": "function"
    },
    {
      "inputs": [
        {
          "internalType": "address",
          "name": "to",
          "type": "address"
        },
        {
          "internalType": "uint256",
          "name": "amount",
          "type": "uint256"
        }
      ],
      "name": "transfer",
      "outputs": [
        {
          "internalType": "bool",
          "name": "",
          "type": "bool"
        }
      ],
      "stateMutability": "nonpayable",
      "type": "function"
    },
    {
      "inputs": [
        {
          "internalType": "address",
          "name": "from",
          "type": "address"
        },
        {
          "internalType": "address",
          "name": "to",
          "type": "address"
        },
        {
          "internalType": "uint256",
          "name": "amount",
          "type": "uint256"
        }
      ],
      "name": "transferFrom",
      "outputs": [
        {
          "internalType": "bool",
          "name": "",
          "type": "bool"
        }
      ],
      "stateMutability": "nonpayable",
      "type": "function"
    },
    {
      "inputs": [],
      "name": "unpause",
      "outputs": [],
      "stateMutability": "nonpayable",
      "type": "function"
    }
  ],
  "bytecode": "0x60806040523480156200001157600080fd5b50604051620036983803806200369883398181016040528101906200003791906200070f565b6040518060400160405280600481526020017f4173656e000000000000000000000000000000000000000000000000000000008152506040518060400160405280600381526020017f41534500000000000000000000000000000000000000000000000000000000008152508160039080519060200190620000bb92919062000648565b508060049080519060200190620000d492919062000648565b5050506000600560006101000a81548160ff021916908315150217905550620001076000801b336200017c60201b60201c565b620001397f65d7a28e3265b37a6474929f336521b332c1681b933f6cb9f3376673440d862a336200017c60201b60201c565b62000175336200014e6200019260201b60201c565b600a6200015c919062000956565b8362000169919062000a93565b6200019b60201b60201c565b5062000cb6565b6200018e82826200031460201b60201c565b5050565b60006012905090565b600073ffffffffffffffffffffffffffffffffffffffff168273ffffffffffffffffffffffffffffffffffffffff1614156200020e576040517f08c379a000000000000000000000000000000000000000000000000000000000815260040162000205906200084e565b60405180910390fd5b62000222600083836200040660201b60201c565b80600260008282546200023691906200089e565b92505081905550806000808473ffffffffffffffffffffffffffffffffffffffff1673ffffffffffffffffffffffffffffffffffffffff16815260200190815260200160002060008282546200028d91906200089e565b925050819055508173ffffffffffffffffffffffffffffffffffffffff16600073ffffffffffffffffffffffffffffffffffffffff167fddf252ad1be2c89b69c2b068fc378daa952ba7f163c4a11628f55a4df523b3ef83604051620002f4919062000870565b60405180910390a362000310600083836200055f60201b60201c565b5050565b6200032682826200056460201b60201c565b620004025760016006600084815260200190815260200160002060000160008373ffffffffffffffffffffffffffffffffffffffff1673ffffffffffffffffffffffffffffffffffffffff16815260200190815260200160002060006101000a81548160ff021916908315150217905550620003a7620005cf60201b60201c565b73ffffffffffffffffffffffffffffffffffffffff168173ffffffffffffffffffffffffffffffffffffffff16837f2f8788117e7eff1d82e926ec794901d17c78024a50270940304540a733656f0d60405160405180910390a45b5050565b62000416620005d760201b60201c565b60001515600760008573ffffffffffffffffffffffffffffffffffffffff1673ffffffffffffffffffffffffffffffffffffffff16815260200190815260200160002060009054906101000a900460ff16151514620004ac576040517f08c379a0000000000000000000000000000000000000000000000000000000008152600401620004a3906200082c565b60405180910390fd5b60001515600760008473ffffffffffffffffffffffffffffffffffffffff1673ffffffffffffffffffffffffffffffffffffffff16815260200190815260200160002060009054906101000a900460ff1615151462000542576040517f08c379a00000000000000000000000000000000000000000000000000000000081526004016200053990620007e8565b60405180910390fd5b6200055a8383836200062c60201b62000d231760201c565b505050565b505050565b60006006600084815260200190815260200160002060000160008373ffffffffffffffffffffffffffffffffffffffff1673ffffffffffffffffffffffffffffffffffffffff16815260200190815260200160002060009054906101000a900460ff16905092915050565b600033905090565b620005e76200063160201b60201c565b156200062a576040517f08c379a000000000000000000000000000000000000000000000000000000000815260040162000621906200080a565b60405180910390fd5b565b505050565b6000600560009054906101000a900460ff16905090565b828054620006569062000b0b565b90600052602060002090601f0160209004810192826200067a5760008555620006c6565b82601f106200069557805160ff1916838001178555620006c6565b82800160010185558215620006c6579182015b82811115620006c5578251825591602001919060010190620006a8565b5b509050620006d59190620006d9565b5090565b5b80821115620006f4576000816000905550600101620006da565b5090565b600081519050620007098162000c9c565b92915050565b6000602082840312156200072257600080fd5b60006200073284828501620006f8565b91505092915050565b60006200074a6028836200088d565b9150620007578262000bac565b604082019050919050565b6000620007716010836200088d565b91506200077e8262000bfb565b602082019050919050565b6000620007986025836200088d565b9150620007a58262000c24565b604082019050919050565b6000620007bf601f836200088d565b9150620007cc8262000c73565b602082019050919050565b620007e28162000af4565b82525050565b6000602082019050818103600083015262000803816200073b565b9050919050565b60006020820190508181036000830152620008258162000762565b9050919050565b60006020820190508181036000830152620008478162000789565b9050919050565b600060208201905081810360008301526200086981620007b0565b9050919050565b6000602082019050620008876000830184620007d7565b92915050565b600082825260208201905092915050565b6000620008ab8262000af4565b9150620008b88362000af4565b9250827fffffffffffffffffffffffffffffffffffffffffffffffffffffffffffffffff03821115620008f057620008ef62000b41565b5b828201905092915050565b6000808291508390505b60018511156200094d5780860481111562000925576200092462000b41565b5b6001851615620009355780820291505b8081029050620009458562000b9f565b945062000905565b94509492505050565b6000620009638262000af4565b9150620009708362000afe565b92506200099f7fffffffffffffffffffffffffffffffffffffffffffffffffffffffffffffffff8484620009a7565b905092915050565b600082620009b9576001905062000a8c565b81620009c9576000905062000a8c565b8160018114620009e25760028114620009ed5762000a23565b600191505062000a8c565b60ff84111562000a025762000a0162000b41565b5b8360020a91508482111562000a1c5762000a1b62000b41565b5b5062000a8c565b5060208310610133831016604e8410600b841016171562000a5d5782820a90508381111562000a575762000a5662000b41565b5b62000a8c565b62000a6c8484846001620008fb565b9250905081840481111562000a865762000a8562000b41565b5b81810290505b9392505050565b600062000aa08262000af4565b915062000aad8362000af4565b9250817fffffffffffffffffffffffffffffffffffffffffffffffffffffffffffffffff048311821515161562000ae95762000ae862000b41565b5b828202905092915050565b6000819050919050565b600060ff82169050919050565b6000600282049050600182168062000b2457607f821691505b6020821081141562000b3b5762000b3a62000b70565b5b50919050565b7f4e487b7100000000000000000000000000000000000000000000000000000000600052601160045260246000fd5b7f4e487b7100000000000000000000000000000000000000000000000000000000600052602260045260246000fd5b60008160011c9050919050565b7f4173656e3a204163636f756e7420726563697069656e742077617320696e206260008201527f6c61636b6c697374000000000000000000000000000000000000000000000000602082015250565b7f5061757361626c653a2070617573656400000000000000000000000000000000600082015250565b7f4173656e3a204163636f756e742073656e6465722077617320696e20626c616360008201527f6b6c697374000000000000000000000000000000000000000000000000000000602082015250565b7f45524332303a206d696e7420746f20746865207a65726f206164647265737300600082015250565b62000ca78162000af4565b811462000cb357600080fd5b50565b6129d28062000cc66000396000f3fe608060405234801561001057600080fd5b50600436106101585760003560e01c80634a49ac4c116100c3578063a217fddf1161007c578063a217fddf146103c7578063a457c2d7146103e5578063a9059cbb14610415578063d547741f14610445578063dd62ed3e14610461578063e63ab1e91461049157610158565b80634a49ac4c146103055780635c975abb1461032157806370a082311461033f5780638456cb591461036f57806391d148541461037957806395d89b41146103a957610158565b80632f2ff15d116101155780632f2ff15d14610259578063313ce5671461027557806336568abe1461029357806339509351146102af5780633f4ba83a146102df578063417c73a7146102e957610158565b806301ffc9a71461015d57806306fdde031461018d578063095ea7b3146101ab57806318160ddd146101db57806323b872dd146101f9578063248a9ca314610229575b600080fd5b61017760048036038101906101729190611c25565b6104af565b6040516101849190611fce565b60405180910390f35b610195610529565b6040516101a29190612004565b60405180910390f35b6101c560048036038101906101c09190611b84565b6105bb565b6040516101d29190611fce565b60405180910390f35b6101e36105de565b6040516101f09190612226565b60405180910390f35b610213600480360381019061020e9190611b35565b6105e8565b6040516102209190611fce565b60405180910390f35b610243600480360381019061023e9190611bc0565b610617565b6040516102509190611fe9565b60405180910390f35b610273600480360381019061026e9190611be9565b610637565b005b61027d610658565b60405161028a9190612241565b60405180910390f35b6102ad60048036038101906102a89190611be9565b610661565b005b6102c960048036038101906102c49190611b84565b6106e4565b6040516102d69190611fce565b60405180910390f35b6102e761071b565b005b61030360048036038101906102fe9190611ad0565b610750565b005b61031f600480360381019061031a9190611ad0565b6108f2565b005b610329610a25565b6040516103369190611fce565b60405180910390f35b61035960048036038101906103549190611ad0565b610a3c565b6040516103669190612226565b60405180910390f35b610377610a84565b005b610393600480360381019061038e9190611be9565b610ab9565b6040516103a09190611fce565b60405180910390f35b6103b1610b24565b6040516103be9190612004565b60405180910390f35b6103cf610bb6565b6040516103dc9190611fe9565b60405180910390f35b6103ff60048036038101906103fa9190611b84565b610bbd565b60405161040c9190611fce565b60405180910390f35b61042f600480360381019061042a9190611b84565b610c34565b60405161043c9190611fce565b60405180910390f35b61045f600480360381019061045a9190611be9565b610c57565b005b61047b60048036038101906104769190611af9565b610c78565b6040516104889190612226565b60405180910390f35b610499610cff565b6040516104a69190611fe9565b60405180910390f35b60007f7965db0b000000000000000000000000000000000000000000000000000000007bffffffffffffffffffffffffffffffffffffffffffffffffffffffff1916827bffffffffffffffffffffffffffffffffffffffffffffffffffffffff19161480610522575061052182610d28565b5b9050919050565b6060600380546105389061241b565b80601f01602080910402602001604051908101604052809291908181526020018280546105649061241b565b80156105b15780601f10610586576101008083540402835291602001916105b1565b820191906000526020600020905b81548152906001019060200180831161059457829003601f168201915b5050505050905090565b6000806105c6610d92565b90506105d3818585610d9a565b600191505092915050565b6000600254905090565b6000806105f3610d92565b9050610600858285610f65565b61060b858585610ff1565b60019150509392505050565b600060066000838152602001908152602001600020600101549050919050565b61064082610617565b61064981611272565b6106538383611286565b505050565b60006012905090565b610669610d92565b73ffffffffffffffffffffffffffffffffffffffff168173ffffffffffffffffffffffffffffffffffffffff16146106d6576040517f08c379a00000000000000000000000000000000000000000000000000000000081526004016106cd90612206565b60405180910390fd5b6106e08282611367565b5050565b6000806106ef610d92565b90506107108185856107018589610c78565b61070b9190612283565b610d9a565b600191505092915050565b7f65d7a28e3265b37a6474929f336521b332c1681b933f6cb9f3376673440d862a61074581611272565b61074d611449565b50565b6000801b61075d81611272565b3373ffffffffffffffffffffffffffffffffffffffff168273ffffffffffffffffffffffffffffffffffffffff1614156107cc576040517f08c379a00000000000000000000000000000000000000000000000000000000081526004016107c390612126565b60405180910390fd5b60001515600760008473ffffffffffffffffffffffffffffffffffffffff1673ffffffffffffffffffffffffffffffffffffffff16815260200190815260200160002060009054906101000a900460ff1615151461085f576040517f08c379a0000000000000000000000000000000000000000000000000000000008152600401610856906121a6565b60405180910390fd5b6001600760008473ffffffffffffffffffffffffffffffffffffffff1673ffffffffffffffffffffffffffffffffffffffff16815260200190815260200160002060006101000a81548160ff0219169083151502179055507ff4b7ec55a49ac1da7e692ab86df6fbd4f88d5106cb8fec0e074dc795e4f628df826040516108e69190611fb3565b60405180910390a15050565b6000801b6108ff81611272565b60001515600760008473ffffffffffffffffffffffffffffffffffffffff1673ffffffffffffffffffffffffffffffffffffffff16815260200190815260200160002060009054906101000a900460ff16151514610992576040517f08c379a000000000000000000000000000000000000000000000000000000000815260040161098990612066565b60405180910390fd5b6000600760008473ffffffffffffffffffffffffffffffffffffffff1673ffffffffffffffffffffffffffffffffffffffff16815260200190815260200160002060006101000a81548160ff0219169083151502179055507f2b7660b9783fc5217982251aa2052ee8b0ffb8b409bd74b84b2a08e8a92316e082604051610a199190611fb3565b60405180910390a15050565b6000600560009054906101000a900460ff16905090565b60008060008373ffffffffffffffffffffffffffffffffffffffff1673ffffffffffffffffffffffffffffffffffffffff168152602001908152602001600020549050919050565b7f65d7a28e3265b37a6474929f336521b332c1681b933f6cb9f3376673440d862a610aae81611272565b610ab66114ac565b50565b60006006600084815260200190815260200160002060000160008373ffffffffffffffffffffffffffffffffffffffff1673ffffffffffffffffffffffffffffffffffffffff16815260200190815260200160002060009054906101000a900460ff16905092915050565b606060048054610b339061241b565b80601f0160208091040260200160405190810160405280929190818152602001828054610b5f9061241b565b8015610bac5780601f10610b8157610100808354040283529160200191610bac565b820191906000526020600020905b815481529060010190602001808311610b8f57829003601f168201915b5050505050905090565b6000801b81565b600080610bc8610d92565b90506000610bd68286610c78565b905083811015610c1b576040517f08c379a0000000000000000000000000000000000000000000000000000000008152600401610c12906121e6565b60405180910390fd5b610c288286868403610d9a565b60019250505092915050565b600080610c3f610d92565b9050610c4c818585610ff1565b600191505092915050565b610c6082610617565b610c6981611272565b610c738383611367565b505050565b6000600160008473ffffffffffffffffffffffffffffffffffffffff1673ffffffffffffffffffffffffffffffffffffffff16815260200190815260200160002060008373ffffffffffffffffffffffffffffffffffffffff1673ffffffffffffffffffffffffffffffffffffffff16815260200190815260200160002054905092915050565b7f65d7a28e3265b37a6474929f336521b332c1681b933f6cb9f3376673440d862a81565b505050565b60007f01ffc9a7000000000000000000000000000000000000000000000000000000007bffffffffffffffffffffffffffffffffffffffffffffffffffffffff1916827bffffffffffffffffffffffffffffffffffffffffffffffffffffffff1916149050919050565b600033905090565b600073ffffffffffffffffffffffffffffffffffffffff168373ffffffffffffffffffffffffffffffffffffffff161415610e0a576040517f08c379a0000000000000000000000000000000000000000000000000000000008152600401610e0190612186565b60405180910390fd5b600073ffffffffffffffffffffffffffffffffffffffff168273ffffffffffffffffffffffffffffffffffffffff161415610e7a576040517f08c379a0000000000000000000000000000000000000000000000000000000008152600401610e71906120a6565b60405180910390fd5b80600160008573ffffffffffffffffffffffffffffffffffffffff1673ffffffffffffffffffffffffffffffffffffffff16815260200190815260200160002060008473ffffffffffffffffffffffffffffffffffffffff1673ffffffffffffffffffffffffffffffffffffffff168152602001908152602001600020819055508173ffffffffffffffffffffffffffffffffffffffff168373ffffffffffffffffffffffffffffffffffffffff167f8c5be1e5ebec7d5bd14f71427d1e84f3dd0314c0f7b2291e5b200ac8c7c3b92583604051610f589190612226565b60405180910390a3505050565b6000610f718484610c78565b90507fffffffffffffffffffffffffffffffffffffffffffffffffffffffffffffffff8114610feb5781811015610fdd576040517f08c379a0000000000000000000000000000000000000000000000000000000008152600401610fd4906120c6565b60405180910390fd5b610fea8484848403610d9a565b5b50505050565b600073ffffffffffffffffffffffffffffffffffffffff168373ffffffffffffffffffffffffffffffffffffffff161415611061576040517f08c379a000000000000000000000000000000000000000000000000000000000815260040161105890612166565b60405180910390fd5b600073ffffffffffffffffffffffffffffffffffffffff168273ffffffffffffffffffffffffffffffffffffffff1614156110d1576040517f08c379a00000000000000000000000000000000000000000000000000000000081526004016110c890612046565b60405180910390fd5b6110dc83838361150f565b60008060008573ffffffffffffffffffffffffffffffffffffffff1673ffffffffffffffffffffffffffffffffffffffff16815260200190815260200160002054905081811015611162576040517f08c379a0000000000000000000000000000000000000000000000000000000008152600401611159906120e6565b60405180910390fd5b8181036000808673ffffffffffffffffffffffffffffffffffffffff1673ffffffffffffffffffffffffffffffffffffffff16815260200190815260200160002081905550816000808573ffffffffffffffffffffffffffffffffffffffff1673ffffffffffffffffffffffffffffffffffffffff16815260200190815260200160002060008282546111f59190612283565b925050819055508273ffffffffffffffffffffffffffffffffffffffff168473ffffffffffffffffffffffffffffffffffffffff167fddf252ad1be2c89b69c2b068fc378daa952ba7f163c4a11628f55a4df523b3ef846040516112599190612226565b60405180910390a361126c84848461164d565b50505050565b6112838161127e610d92565b611652565b50565b6112908282610ab9565b6113635760016006600084815260200190815260200160002060000160008373ffffffffffffffffffffffffffffffffffffffff1673ffffffffffffffffffffffffffffffffffffffff16815260200190815260200160002060006101000a81548160ff021916908315150217905550611308610d92565b73ffffffffffffffffffffffffffffffffffffffff168173ffffffffffffffffffffffffffffffffffffffff16837f2f8788117e7eff1d82e926ec794901d17c78024a50270940304540a733656f0d60405160405180910390a45b5050565b6113718282610ab9565b156114455760006006600084815260200190815260200160002060000160008373ffffffffffffffffffffffffffffffffffffffff1673ffffffffffffffffffffffffffffffffffffffff16815260200190815260200160002060006101000a81548160ff0219169083151502179055506113ea610d92565b73ffffffffffffffffffffffffffffffffffffffff168173ffffffffffffffffffffffffffffffffffffffff16837ff6391f5c32d9c69d2a47ea670b442974b53935d1edc7fd64eb21e047a839171b60405160405180910390a45b5050565b6114516116ef565b6000600560006101000a81548160ff0219169083151502179055507f5db9ee0a495bf2e6ff9c91a7834c1ba4fdd244a5e8aa4e537bd38aeae4b073aa611495610d92565b6040516114a29190611fb3565b60405180910390a1565b6114b4611738565b6001600560006101000a81548160ff0219169083151502179055507f62e78cea01bee320cd4e420270b5ea74000d11b0c9f74754ebdbfc544b05a2586114f8610d92565b6040516115059190611fb3565b60405180910390a1565b611517611738565b60001515600760008573ffffffffffffffffffffffffffffffffffffffff1673ffffffffffffffffffffffffffffffffffffffff16815260200190815260200160002060009054906101000a900460ff161515146115aa576040517f08c379a00000000000000000000000000000000000000000000000000000000081526004016115a1906121c6565b60405180910390fd5b60001515600760008473ffffffffffffffffffffffffffffffffffffffff1673ffffffffffffffffffffffffffffffffffffffff16815260200190815260200160002060009054906101000a900460ff1615151461163d576040517f08c379a000000000000000000000000000000000000000000000000000000000815260040161163490612106565b60405180910390fd5b611648838383610d23565b505050565b505050565b61165c8282610ab9565b6116eb576116818173ffffffffffffffffffffffffffffffffffffffff166014611782565b61168f8360001c6020611782565b6040516020016116a0929190611f79565b6040516020818303038152906040526040517f08c379a00000000000000000000000000000000000000000000000000000000081526004016116e29190612004565b60405180910390fd5b5050565b6116f7610a25565b611736576040517f08c379a000000000000000000000000000000000000000000000000000000000815260040161172d90612086565b60405180910390fd5b565b611740610a25565b15611780576040517f08c379a000000000000000000000000000000000000000000000000000000000815260040161177790612146565b60405180910390fd5b565b60606000600283600261179591906122d9565b61179f9190612283565b67ffffffffffffffff8111156117de577f4e487b7100000000000000000000000000000000000000000000000000000000600052604160045260246000fd5b6040519080825280601f01601f1916602001820160405280156118105781602001600182028036833780820191505090505b5090507f30000000000000000000000000000000000000000000000000000000000000008160008151811061186e577f4e487b7100000000000000000000000000000000000000000000000000000000600052603260045260246000fd5b60200101907effffffffffffffffffffffffffffffffffffffffffffffffffffffffffffff1916908160001a9053507f7800000000000000000000000000000000000000000000000000000000000000816001815181106118f8577f4e487b7100000000000000000000000000000000000000000000000000000000600052603260045260246000fd5b60200101907effffffffffffffffffffffffffffffffffffffffffffffffffffffffffffff1916908160001a9053506000600184600261193891906122d9565b6119429190612283565b90505b6001811115611a2e577f3031323334353637383961626364656600000000000000000000000000000000600f8616601081106119aa577f4e487b7100000000000000000000000000000000000000000000000000000000600052603260045260246000fd5b1a60f81b8282815181106119e7577f4e487b7100000000000000000000000000000000000000000000000000000000600052603260045260246000fd5b60200101907effffffffffffffffffffffffffffffffffffffffffffffffffffffffffffff1916908160001a905350600485901c945080611a27906123f1565b9050611945565b5060008414611a72576040517f08c379a0000000000000000000000000000000000000000000000000000000008152600401611a6990612026565b60405180910390fd5b8091505092915050565b600081359050611a8b81612940565b92915050565b600081359050611aa081612957565b92915050565b600081359050611ab58161296e565b92915050565b600081359050611aca81612985565b92915050565b600060208284031215611ae257600080fd5b6000611af084828501611a7c565b91505092915050565b60008060408385031215611b0c57600080fd5b6000611b1a85828601611a7c565b9250506020611b2b85828601611a7c565b9150509250929050565b600080600060608486031215611b4a57600080fd5b6000611b5886828701611a7c565b9350506020611b6986828701611a7c565b9250506040611b7a86828701611abb565b9150509250925092565b60008060408385031215611b9757600080fd5b6000611ba585828601611a7c565b9250506020611bb685828601611abb565b9150509250929050565b600060208284031215611bd257600080fd5b6000611be084828501611a91565b91505092915050565b60008060408385031215611bfc57600080fd5b6000611c0a85828601611a91565b9250506020611c1b85828601611a7c565b9150509250929050565b600060208284031215611c3757600080fd5b6000611c4584828501611aa6565b91505092915050565b611c5781612333565b82525050565b611c6681612345565b82525050565b611c7581612351565b82525050565b6000611c868261225c565b611c908185612267565b9350611ca08185602086016123be565b611ca9816124ab565b840191505092915050565b6000611cbf8261225c565b611cc98185612278565b9350611cd98185602086016123be565b80840191505092915050565b6000611cf2602083612267565b9150611cfd826124bc565b602082019050919050565b6000611d15602383612267565b9150611d20826124e5565b604082019050919050565b6000611d38602283612267565b9150611d4382612534565b604082019050919050565b6000611d5b601483612267565b9150611d6682612583565b602082019050919050565b6000611d7e602283612267565b9150611d89826125ac565b604082019050919050565b6000611da1601d83612267565b9150611dac826125fb565b602082019050919050565b6000611dc4602683612267565b9150611dcf82612624565b604082019050919050565b6000611de7602883612267565b9150611df282612673565b604082019050919050565b6000611e0a602583612267565b9150611e15826126c2565b604082019050919050565b6000611e2d601083612267565b9150611e3882612711565b602082019050919050565b6000611e50602583612267565b9150611e5b8261273a565b604082019050919050565b6000611e73602483612267565b9150611e7e82612789565b604082019050919050565b6000611e96601e83612267565b9150611ea1826127d8565b602082019050919050565b6000611eb9601783612278565b9150611ec482612801565b601782019050919050565b6000611edc602583612267565b9150611ee78261282a565b604082019050919050565b6000611eff602583612267565b9150611f0a82612879565b604082019050919050565b6000611f22601183612278565b9150611f2d826128c8565b601182019050919050565b6000611f45602f83612267565b9150611f50826128f1565b604082019050919050565b611f64816123a7565b82525050565b611f73816123b1565b82525050565b6000611f8482611eac565b9150611f908285611cb4565b9150611f9b82611f15565b9150611fa78284611cb4565b91508190509392505050565b6000602082019050611fc86000830184611c4e565b92915050565b6000602082019050611fe36000830184611c5d565b92915050565b6000602082019050611ffe6000830184611c6c565b92915050565b6000602082019050818103600083015261201e8184611c7b565b905092915050565b6000602082019050818103600083015261203f81611ce5565b9050919050565b6000602082019050818103600083015261205f81611d08565b9050919050565b6000602082019050818103600083015261207f81611d2b565b9050919050565b6000602082019050818103600083015261209f81611d4e565b9050919050565b600060208201905081810360008301526120bf81611d71565b9050919050565b600060208201905081810360008301526120df81611d94565b9050919050565b600060208201905081810360008301526120ff81611db7565b9050919050565b6000602082019050818103600083015261211f81611dda565b9050919050565b6000602082019050818103600083015261213f81611dfd565b9050919050565b6000602082019050818103600083015261215f81611e20565b9050919050565b6000602082019050818103600083015261217f81611e43565b9050919050565b6000602082019050818103600083015261219f81611e66565b9050919050565b600060208201905081810360008301526121bf81611e89565b9050919050565b600060208201905081810360008301526121df81611ecf565b9050919050565b600060208201905081810360008301526121ff81611ef2565b9050919050565b6000602082019050818103600083015261221f81611f38565b9050919050565b600060208201905061223b6000830184611f5b565b92915050565b60006020820190506122566000830184611f6a565b92915050565b600081519050919050565b600082825260208201905092915050565b600081905092915050565b600061228e826123a7565b9150612299836123a7565b9250827fffffffffffffffffffffffffffffffffffffffffffffffffffffffffffffffff038211156122ce576122cd61244d565b5b828201905092915050565b60006122e4826123a7565b91506122ef836123a7565b9250817fffffffffffffffffffffffffffffffffffffffffffffffffffffffffffffffff04831182151516156123285761232761244d565b5b828202905092915050565b600061233e82612387565b9050919050565b60008115159050919050565b6000819050919050565b60007fffffffff0000000000000000000000000000000000000000000000000000000082169050919050565b600073ffffffffffffffffffffffffffffffffffffffff82169050919050565b6000819050919050565b600060ff82169050919050565b60005b838110156123dc5780820151818401526020810190506123c1565b838111156123eb576000848401525b50505050565b60006123fc826123a7565b915060008214156124105761240f61244d565b5b600182039050919050565b6000600282049050600182168061243357607f821691505b602082108114156124475761244661247c565b5b50919050565b7f4e487b7100000000000000000000000000000000000000000000000000000000600052601160045260246000fd5b7f4e487b7100000000000000000000000000000000000000000000000000000000600052602260045260246000fd5b6000601f19601f8301169050919050565b7f537472696e67733a20686578206c656e67746820696e73756666696369656e74600082015250565b7f45524332303a207472616e7366657220746f20746865207a65726f206164647260008201527f6573730000000000000000000000000000000000000000000000000000000000602082015250565b7f4173656e3a204163636f756e7420776173206e6f74206f6e20626c61636b6c6960008201527f7374000000000000000000000000000000000000000000000000000000000000602082015250565b7f5061757361626c653a206e6f7420706175736564000000000000000000000000600082015250565b7f45524332303a20617070726f766520746f20746865207a65726f20616464726560008201527f7373000000000000000000000000000000000000000000000000000000000000602082015250565b7f45524332303a20696e73756666696369656e7420616c6c6f77616e6365000000600082015250565b7f45524332303a207472616e7366657220616d6f756e742065786365656473206260008201527f616c616e63650000000000000000000000000000000000000000000000000000602082015250565b7f4173656e3a204163636f756e7420726563697069656e742077617320696e206260008201527f6c61636b6c697374000000000000000000000000000000000000000000000000602082015250565b7f4173656e3a204d757374206e6f74206164642041646d696e20746f20626c616360008201527f6b6c697374000000000000000000000000000000000000000000000000000000602082015250565b7f5061757361626c653a2070617573656400000000000000000000000000000000600082015250565b7f45524332303a207472616e736665722066726f6d20746865207a65726f20616460008201527f6472657373000000000000000000000000000000000000000000000000000000602082015250565b7f45524332303a20617070726f76652066726f6d20746865207a65726f2061646460008201527f7265737300000000000000000000000000000000000000000000000000000000602082015250565b7f4173656e3a204163636f756e7420776173206f6e20626c61636b6c6973740000600082015250565b7f416363657373436f6e74726f6c3a206163636f756e7420000000000000000000600082015250565b7f4173656e3a204163636f756e742073656e6465722077617320696e20626c616360008201527f6b6c697374000000000000000000000000000000000000000000000000000000602082015250565b7f45524332303a2064656372656173656420616c6c6f77616e63652062656c6f7760008201527f207a65726f000000000000000000000000000000000000000000000000000000602082015250565b7f206973206d697373696e6720726f6c6520000000000000000000000000000000600082015250565b7f416363657373436f6e74726f6c3a2063616e206f6e6c792072656e6f756e636560008201527f20726f6c657320666f722073656c660000000000000000000000000000000000602082015250565b61294981612333565b811461295457600080fd5b50565b61296081612351565b811461296b57600080fd5b50565b6129778161235b565b811461298257600080fd5b50565b61298e816123a7565b811461299957600080fd5b5056fea26469706673582212201ad055696429ac13635ffbfbe6a80f0248f25bd1a4cc2c8eb1d7f1ed46f8fafb64736f6c63430008040033",
  "linkReferences": {},
  "deployedLinkReferences": {}
}