{
  "_format": "hh-sol-artifact-1",
  "contractName": "Petty",
  "sourceName": "contracts/Petty.sol",
  "abi": [
    {
      "inputs": [],
      "stateMutability": "nonpayable",
      "type": "constructor"
    },
    {
      "anonymous": false,
      "inputs": [
        {
          "indexed": true,
          "internalType": "address",
          "name": "owner",
          "type": "address"
        },
        {
          "indexed": true,
          "internalType": "address",
          "name": "approved",
          "type": "address"
        },
        {
          "indexed": true,
          "internalType": "uint256",
          "name": "tokenId",
          "type": "uint256"
        }
      ],
      "name": "Approval",
      "type": "event"
    },
    {
      "anonymous": false,
      "inputs": [
        {
          "indexed": true,
          "internalType": "address",
          "name": "owner",
          "type": "address"
        },
        {
          "indexed": true,
          "internalType": "address",
          "name": "operator",
          "type": "address"
        },
        {
          "indexed": false,
          "internalType": "bool",
          "name": "approved",
          "type": "bool"
        }
      ],
      "name": "ApprovalForAll",
      "type": "event"
    },
    {
      "anonymous": false,
      "inputs": [
        {
          "indexed": true,
          "internalType": "address",
          "name": "previousOwner",
          "type": "address"
        },
        {
          "indexed": true,
          "internalType": "address",
          "name": "newOwner",
          "type": "address"
        }
      ],
      "name": "OwnershipTransferred",
      "type": "event"
    },
    {
      "anonymous": false,
      "inputs": [
        {
          "indexed": true,
          "internalType": "address",
          "name": "from",
          "type": "address"
        },
        {
          "indexed": true,
          "internalType": "address",
          "name": "to",
          "type": "address"
        },
        {
          "indexed": true,
          "internalType": "uint256",
          "name": "tokenId",
          "type": "uint256"
        }
      ],
      "name": "Transfer",
      "type": "event"
    },
    {
      "inputs": [
        {
          "internalType": "address",
          "name": "to",
          "type": "address"
        },
        {
          "internalType": "uint256",
          "name": "tokenId",
          "type": "uint256"
        }
      ],
      "name": "approve",
      "outputs": [],
      "stateMutability": "nonpayable",
      "type": "function"
    },
    {
      "inputs": [
        {
          "internalType": "address",
          "name": "owner",
          "type": "address"
        }
      ],
      "name": "balanceOf",
      "outputs": [
        {
          "internalType": "uint256",
          "name": "",
          "type": "uint256"
        }
      ],
      "stateMutability": "view",
      "type": "function"
    },
    {
      "inputs": [
        {
          "internalType": "uint256",
          "name": "tokenId",
          "type": "uint256"
        }
      ],
      "name": "getApproved",
      "outputs": [
        {
          "internalType": "address",
          "name": "",
          "type": "address"
        }
      ],
      "stateMutability": "view",
      "type": "function"
    },
    {
      "inputs": [
        {
          "internalType": "address",
          "name": "owner",
          "type": "address"
        },
        {
          "internalType": "address",
          "name": "operator",
          "type": "address"
        }
      ],
      "name": "isApprovedForAll",
      "outputs": [
        {
          "internalType": "bool",
          "name": "",
          "type": "bool"
        }
      ],
      "stateMutability": "view",
      "type": "function"
    },
    {
      "inputs": [
        {
          "internalType": "address",
          "name": "_to",
          "type": "address"
        }
      ],
      "name": "mint",
      "outputs": [
        {
          "internalType": "uint256",
          "name": "",
          "type": "uint256"
        }
      ],
      "stateMutability": "nonpayable",
      "type": "function"
    },
    {
      "inputs": [],
      "name": "name",
      "outputs": [
        {
          "internalType": "string",
          "name": "",
          "type": "string"
        }
      ],
      "stateMutability": "view",
      "type": "function"
    },
    {
      "inputs": [],
      "name": "owner",
      "outputs": [
        {
          "internalType": "address",
          "name": "",
          "type": "address"
        }
      ],
      "stateMutability": "view",
      "type": "function"
    },
    {
      "inputs": [
        {
          "internalType": "uint256",
          "name": "tokenId",
          "type": "uint256"
        }
      ],
      "name": "ownerOf",
      "outputs": [
        {
          "internalType": "address",
          "name": "",
          "type": "address"
        }
      ],
      "stateMutability": "view",
      "type": "function"
    },
    {
      "inputs": [],
      "name": "renounceOwnership",
      "outputs": [],
      "stateMutability": "nonpayable",
      "type": "function"
    },
    {
      "inputs": [
        {
          "internalType": "address",
          "name": "from",
          "type": "address"
        },
        {
          "internalType": "address",
          "name": "to",
          "type": "address"
        },
        {
          "internalType": "uint256",
          "name": "tokenId",
          "type": "uint256"
        }
      ],
      "name": "safeTransferFrom",
      "outputs": [],
      "stateMutability": "nonpayable",
      "type": "function"
    },
    {
      "inputs": [
        {
          "internalType": "address",
          "name": "from",
          "type": "address"
        },
        {
          "internalType": "address",
          "name": "to",
          "type": "address"
        },
        {
          "internalType": "uint256",
          "name": "tokenId",
          "type": "uint256"
        },
        {
          "internalType": "bytes",
          "name": "data",
          "type": "bytes"
        }
      ],
      "name": "safeTransferFrom",
      "outputs": [],
      "stateMutability": "nonpayable",
      "type": "function"
    },
    {
      "inputs": [
        {
          "internalType": "address",
          "name": "operator",
          "type": "address"
        },
        {
          "internalType": "bool",
          "name": "approved",
          "type": "bool"
        }
      ],
      "name": "setApprovalForAll",
      "outputs": [],
      "stateMutability": "nonpayable",
      "type": "function"
    },
    {
      "inputs": [
        {
          "internalType": "bytes4",
          "name": "interfaceId",
          "type": "bytes4"
        }
      ],
      "name": "supportsInterface",
      "outputs": [
        {
          "internalType": "bool",
          "name": "",
          "type": "bool"
        }
      ],
      "stateMutability": "view",
      "type": "function"
    },
    {
      "inputs": [],
      "name": "symbol",
      "outputs": [
        {
          "internalType": "string",
          "name": "",
          "type": "string"
        }
      ],
      "stateMutability": "view",
      "type": "function"
    },
    {
      "inputs": [
        {
          "internalType": "uint256",
          "name": "tokenId",
          "type": "uint256"
        }
      ],
      "name": "tokenURI",
      "outputs": [
        {
          "internalType": "string",
          "name": "",
          "type": "string"
        }
      ],
      "stateMutability": "view",
      "type": "function"
    },
    {
      "inputs": [
        {
          "internalType": "address",
          "name": "from",
          "type": "address"
        },
        {
          "internalType": "address",
          "name": "to",
          "type": "address"
        },
        {
          "internalType": "uint256",
          "name": "tokenId",
          "type": "uint256"
        }
      ],
      "name": "transferFrom",
      "outputs": [],
      "stateMutability": "nonpayable",
      "type": "function"
    },
    {
      "inputs": [
        {
          "internalType": "address",
          "name": "newOwner",
          "type": "address"
        }
      ],
      "name": "transferOwnership",
      "outputs": [],
      "stateMutability": "nonpayable",
      "type": "function"
    },
    {
      "inputs": [
        {
          "internalType": "string",
          "name": "baseTokenURI_",
          "type": "string"
        }
      ],
      "name": "updateBaseTokenURI",
      "outputs": [],
      "stateMutability": "nonpayable",
      "type": "function"
    }
  ],
  "bytecode": "0x60806040523480156200001157600080fd5b506040518060400160405280600581526020017f50657474790000000000000000000000000000000000000000000000000000008152506040518060400160405280600381526020017f5045540000000000000000000000000000000000000000000000000000000000815250816000908051906020019062000096929190620001a6565b508060019080519060200190620000af929190620001a6565b505050620000d2620000c6620000d860201b60201c565b620000e060201b60201c565b620002bb565b600033905090565b6000600660009054906101000a900473ffffffffffffffffffffffffffffffffffffffff16905081600660006101000a81548173ffffffffffffffffffffffffffffffffffffffff021916908373ffffffffffffffffffffffffffffffffffffffff1602179055508173ffffffffffffffffffffffffffffffffffffffff168173ffffffffffffffffffffffffffffffffffffffff167f8be0079c531659141344cd1fd0a4f28419497f9722a3daafe3b4186f6b6457e060405160405180910390a35050565b828054620001b49062000256565b90600052602060002090601f016020900481019282620001d8576000855562000224565b82601f10620001f357805160ff191683800117855562000224565b8280016001018555821562000224579182015b828111156200022357825182559160200191906001019062000206565b5b50905062000233919062000237565b5090565b5b808211156200025257600081600090555060010162000238565b5090565b600060028204905060018216806200026f57607f821691505b602082108114156200028657620002856200028c565b5b50919050565b7f4e487b7100000000000000000000000000000000000000000000000000000000600052602260045260246000fd5b612a6f80620002cb6000396000f3fe608060405234801561001057600080fd5b50600436106101165760003560e01c806370a08231116100a2578063a22cb46511610071578063a22cb465146102df578063b88d4fde146102fb578063c87b56dd14610317578063e985e9c514610347578063f2fde38b1461037757610116565b806370a0823114610269578063715018a6146102995780638da5cb5b146102a357806395d89b41146102c157610116565b806323b872dd116100e957806323b872dd146101b557806342842e0e146101d15780636352211e146101ed578063655391c91461021d5780636a6278421461023957610116565b806301ffc9a71461011b57806306fdde031461014b578063081812fc14610169578063095ea7b314610199575b600080fd5b61013560048036038101906101309190611cdd565b610393565b60405161014291906120bb565b60405180910390f35b610153610475565b60405161016091906120d6565b60405180910390f35b610183600480360381019061017e9190611d70565b610507565b6040516101909190612054565b60405180910390f35b6101b360048036038101906101ae9190611ca1565b61054d565b005b6101cf60048036038101906101ca9190611b9b565b610665565b005b6101eb60048036038101906101e69190611b9b565b6106c5565b005b61020760048036038101906102029190611d70565b6106e5565b6040516102149190612054565b60405180910390f35b61023760048036038101906102329190611d2f565b610797565b005b610253600480360381019061024e9190611b36565b6107b9565b6040516102609190612298565b60405180910390f35b610283600480360381019061027e9190611b36565b6107ee565b6040516102909190612298565b60405180910390f35b6102a16108a6565b005b6102ab6108ba565b6040516102b89190612054565b60405180910390f35b6102c96108e4565b6040516102d691906120d6565b60405180910390f35b6102f960048036038101906102f49190611c65565b610976565b005b61031560048036038101906103109190611bea565b61098c565b005b610331600480360381019061032c9190611d70565b6109ee565b60405161033e91906120d6565b60405180910390f35b610361600480360381019061035c9190611b5f565b610a56565b60405161036e91906120bb565b60405180910390f35b610391600480360381019061038c9190611b36565b610aea565b005b60007f80ac58cd000000000000000000000000000000000000000000000000000000007bffffffffffffffffffffffffffffffffffffffffffffffffffffffff1916827bffffffffffffffffffffffffffffffffffffffffffffffffffffffff1916148061045e57507f5b5e139f000000000000000000000000000000000000000000000000000000007bffffffffffffffffffffffffffffffffffffffffffffffffffffffff1916827bffffffffffffffffffffffffffffffffffffffffffffffffffffffff1916145b8061046e575061046d82610b6e565b5b9050919050565b606060008054610484906124ee565b80601f01602080910402602001604051908101604052809291908181526020018280546104b0906124ee565b80156104fd5780601f106104d2576101008083540402835291602001916104fd565b820191906000526020600020905b8154815290600101906020018083116104e057829003601f168201915b5050505050905090565b600061051282610bd8565b6004600083815260200190815260200160002060009054906101000a900473ffffffffffffffffffffffffffffffffffffffff169050919050565b6000610558826106e5565b90508073ffffffffffffffffffffffffffffffffffffffff168373ffffffffffffffffffffffffffffffffffffffff1614156105c9576040517f08c379a00000000000000000000000000000000000000000000000000000000081526004016105c090612258565b60405180910390fd5b8073ffffffffffffffffffffffffffffffffffffffff166105e8610c23565b73ffffffffffffffffffffffffffffffffffffffff161480610617575061061681610611610c23565b610a56565b5b610656576040517f08c379a000000000000000000000000000000000000000000000000000000000815260040161064d906121d8565b60405180910390fd5b6106608383610c2b565b505050565b610676610670610c23565b82610ce4565b6106b5576040517f08c379a00000000000000000000000000000000000000000000000000000000081526004016106ac90612278565b60405180910390fd5b6106c0838383610d79565b505050565b6106e08383836040518060200160405280600081525061098c565b505050565b6000806002600084815260200190815260200160002060009054906101000a900473ffffffffffffffffffffffffffffffffffffffff169050600073ffffffffffffffffffffffffffffffffffffffff168173ffffffffffffffffffffffffffffffffffffffff16141561078e576040517f08c379a000000000000000000000000000000000000000000000000000000000815260040161078590612238565b60405180910390fd5b80915050919050565b61079f610fe0565b80600790805190602001906107b592919061195a565b5050565b60006107c3610fe0565b6107cd600861105e565b60006107d96008611074565b90506107e58382611082565b80915050919050565b60008073ffffffffffffffffffffffffffffffffffffffff168273ffffffffffffffffffffffffffffffffffffffff16141561085f576040517f08c379a0000000000000000000000000000000000000000000000000000000008152600401610856906121b8565b60405180910390fd5b600360008373ffffffffffffffffffffffffffffffffffffffff1673ffffffffffffffffffffffffffffffffffffffff168152602001908152602001600020549050919050565b6108ae610fe0565b6108b8600061125c565b565b6000600660009054906101000a900473ffffffffffffffffffffffffffffffffffffffff16905090565b6060600180546108f3906124ee565b80601f016020809104026020016040519081016040528092919081815260200182805461091f906124ee565b801561096c5780601f106109415761010080835404028352916020019161096c565b820191906000526020600020905b81548152906001019060200180831161094f57829003601f168201915b5050505050905090565b610988610981610c23565b8383611322565b5050565b61099d610997610c23565b83610ce4565b6109dc576040517f08c379a00000000000000000000000000000000000000000000000000000000081526004016109d390612278565b60405180910390fd5b6109e88484848461148f565b50505050565b60606109f982610bd8565b6000610a036114eb565b90506000815111610a235760405180602001604052806000815250610a4e565b80610a2d8461157d565b604051602001610a3e929190612030565b6040516020818303038152906040525b915050919050565b6000600560008473ffffffffffffffffffffffffffffffffffffffff1673ffffffffffffffffffffffffffffffffffffffff16815260200190815260200160002060008373ffffffffffffffffffffffffffffffffffffffff1673ffffffffffffffffffffffffffffffffffffffff16815260200190815260200160002060009054906101000a900460ff16905092915050565b610af2610fe0565b600073ffffffffffffffffffffffffffffffffffffffff168173ffffffffffffffffffffffffffffffffffffffff161415610b62576040517f08c379a0000000000000000000000000000000000000000000000000000000008152600401610b5990612118565b60405180910390fd5b610b6b8161125c565b50565b60007f01ffc9a7000000000000000000000000000000000000000000000000000000007bffffffffffffffffffffffffffffffffffffffffffffffffffffffff1916827bffffffffffffffffffffffffffffffffffffffffffffffffffffffff1916149050919050565b610be18161172a565b610c20576040517f08c379a0000000000000000000000000000000000000000000000000000000008152600401610c1790612238565b60405180910390fd5b50565b600033905090565b816004600083815260200190815260200160002060006101000a81548173ffffffffffffffffffffffffffffffffffffffff021916908373ffffffffffffffffffffffffffffffffffffffff160217905550808273ffffffffffffffffffffffffffffffffffffffff16610c9e836106e5565b73ffffffffffffffffffffffffffffffffffffffff167f8c5be1e5ebec7d5bd14f71427d1e84f3dd0314c0f7b2291e5b200ac8c7c3b92560405160405180910390a45050565b600080610cf0836106e5565b90508073ffffffffffffffffffffffffffffffffffffffff168473ffffffffffffffffffffffffffffffffffffffff161480610d325750610d318185610a56565b5b80610d7057508373ffffffffffffffffffffffffffffffffffffffff16610d5884610507565b73ffffffffffffffffffffffffffffffffffffffff16145b91505092915050565b8273ffffffffffffffffffffffffffffffffffffffff16610d99826106e5565b73ffffffffffffffffffffffffffffffffffffffff1614610def576040517f08c379a0000000000000000000000000000000000000000000000000000000008152600401610de690612138565b60405180910390fd5b600073ffffffffffffffffffffffffffffffffffffffff168273ffffffffffffffffffffffffffffffffffffffff161415610e5f576040517f08c379a0000000000000000000000000000000000000000000000000000000008152600401610e5690612178565b60405180910390fd5b610e6a838383611796565b610e75600082610c2b565b6001600360008573ffffffffffffffffffffffffffffffffffffffff1673ffffffffffffffffffffffffffffffffffffffff1681526020019081526020016000206000828254610ec59190612404565b925050819055506001600360008473ffffffffffffffffffffffffffffffffffffffff1673ffffffffffffffffffffffffffffffffffffffff1681526020019081526020016000206000828254610f1c919061237d565b92505081905550816002600083815260200190815260200160002060006101000a81548173ffffffffffffffffffffffffffffffffffffffff021916908373ffffffffffffffffffffffffffffffffffffffff160217905550808273ffffffffffffffffffffffffffffffffffffffff168473ffffffffffffffffffffffffffffffffffffffff167fddf252ad1be2c89b69c2b068fc378daa952ba7f163c4a11628f55a4df523b3ef60405160405180910390a4610fdb83838361179b565b505050565b610fe8610c23565b73ffffffffffffffffffffffffffffffffffffffff166110066108ba565b73ffffffffffffffffffffffffffffffffffffffff161461105c576040517f08c379a000000000000000000000000000000000000000000000000000000000815260040161105390612218565b60405180910390fd5b565b6001816000016000828254019250508190555050565b600081600001549050919050565b600073ffffffffffffffffffffffffffffffffffffffff168273ffffffffffffffffffffffffffffffffffffffff1614156110f2576040517f08c379a00000000000000000000000000000000000000000000000000000000081526004016110e9906121f8565b60405180910390fd5b6110fb8161172a565b1561113b576040517f08c379a000000000000000000000000000000000000000000000000000000000815260040161113290612158565b60405180910390fd5b61114760008383611796565b6001600360008473ffffffffffffffffffffffffffffffffffffffff1673ffffffffffffffffffffffffffffffffffffffff1681526020019081526020016000206000828254611197919061237d565b92505081905550816002600083815260200190815260200160002060006101000a81548173ffffffffffffffffffffffffffffffffffffffff021916908373ffffffffffffffffffffffffffffffffffffffff160217905550808273ffffffffffffffffffffffffffffffffffffffff16600073ffffffffffffffffffffffffffffffffffffffff167fddf252ad1be2c89b69c2b068fc378daa952ba7f163c4a11628f55a4df523b3ef60405160405180910390a46112586000838361179b565b5050565b6000600660009054906101000a900473ffffffffffffffffffffffffffffffffffffffff16905081600660006101000a81548173ffffffffffffffffffffffffffffffffffffffff021916908373ffffffffffffffffffffffffffffffffffffffff1602179055508173ffffffffffffffffffffffffffffffffffffffff168173ffffffffffffffffffffffffffffffffffffffff167f8be0079c531659141344cd1fd0a4f28419497f9722a3daafe3b4186f6b6457e060405160405180910390a35050565b8173ffffffffffffffffffffffffffffffffffffffff168373ffffffffffffffffffffffffffffffffffffffff161415611391576040517f08c379a000000000000000000000000000000000000000000000000000000000815260040161138890612198565b60405180910390fd5b80600560008573ffffffffffffffffffffffffffffffffffffffff1673ffffffffffffffffffffffffffffffffffffffff16815260200190815260200160002060008473ffffffffffffffffffffffffffffffffffffffff1673ffffffffffffffffffffffffffffffffffffffff16815260200190815260200160002060006101000a81548160ff0219169083151502179055508173ffffffffffffffffffffffffffffffffffffffff168373ffffffffffffffffffffffffffffffffffffffff167f17307eab39ab6107e8899845ad3d59bd9653f200f220920489ca2b5937696c318360405161148291906120bb565b60405180910390a3505050565b61149a848484610d79565b6114a6848484846117a0565b6114e5576040517f08c379a00000000000000000000000000000000000000000000000000000000081526004016114dc906120f8565b60405180910390fd5b50505050565b6060600780546114fa906124ee565b80601f0160208091040260200160405190810160405280929190818152602001828054611526906124ee565b80156115735780601f1061154857610100808354040283529160200191611573565b820191906000526020600020905b81548152906001019060200180831161155657829003601f168201915b5050505050905090565b606060008214156115c5576040518060400160405280600181526020017f30000000000000000000000000000000000000000000000000000000000000008152509050611725565b600082905060005b600082146115f75780806115e090612551565b915050600a826115f091906123d3565b91506115cd565b60008167ffffffffffffffff811115611639577f4e487b7100000000000000000000000000000000000000000000000000000000600052604160045260246000fd5b6040519080825280601f01601f19166020018201604052801561166b5781602001600182028036833780820191505090505b5090505b6000851461171e576001826116849190612404565b9150600a85611693919061259a565b603061169f919061237d565b60f81b8183815181106116db577f4e487b7100000000000000000000000000000000000000000000000000000000600052603260045260246000fd5b60200101907effffffffffffffffffffffffffffffffffffffffffffffffffffffffffffff1916908160001a905350600a8561171791906123d3565b945061166f565b8093505050505b919050565b60008073ffffffffffffffffffffffffffffffffffffffff166002600084815260200190815260200160002060009054906101000a900473ffffffffffffffffffffffffffffffffffffffff1673ffffffffffffffffffffffffffffffffffffffff1614159050919050565b505050565b505050565b60006117c18473ffffffffffffffffffffffffffffffffffffffff16611937565b1561192a578373ffffffffffffffffffffffffffffffffffffffff1663150b7a026117ea610c23565b8786866040518563ffffffff1660e01b815260040161180c949392919061206f565b602060405180830381600087803b15801561182657600080fd5b505af192505050801561185757506040513d601f19601f820116820180604052508101906118549190611d06565b60015b6118da573d8060008114611887576040519150601f19603f3d011682016040523d82523d6000602084013e61188c565b606091505b506000815114156118d2576040517f08c379a00000000000000000000000000000000000000000000000000000000081526004016118c9906120f8565b60405180910390fd5b805181602001fd5b63150b7a0260e01b7bffffffffffffffffffffffffffffffffffffffffffffffffffffffff1916817bffffffffffffffffffffffffffffffffffffffffffffffffffffffff19161491505061192f565b600190505b949350505050565b6000808273ffffffffffffffffffffffffffffffffffffffff163b119050919050565b828054611966906124ee565b90600052602060002090601f01602090048101928261198857600085556119cf565b82601f106119a157805160ff19168380011785556119cf565b828001600101855582156119cf579182015b828111156119ce5782518255916020019190600101906119b3565b5b5090506119dc91906119e0565b5090565b5b808211156119f95760008160009055506001016119e1565b5090565b6000611a10611a0b846122d8565b6122b3565b905082815260208101848484011115611a2857600080fd5b611a338482856124ac565b509392505050565b6000611a4e611a4984612309565b6122b3565b905082815260208101848484011115611a6657600080fd5b611a718482856124ac565b509392505050565b600081359050611a88816129dd565b92915050565b600081359050611a9d816129f4565b92915050565b600081359050611ab281612a0b565b92915050565b600081519050611ac781612a0b565b92915050565b600082601f830112611ade57600080fd5b8135611aee8482602086016119fd565b91505092915050565b600082601f830112611b0857600080fd5b8135611b18848260208601611a3b565b91505092915050565b600081359050611b3081612a22565b92915050565b600060208284031215611b4857600080fd5b6000611b5684828501611a79565b91505092915050565b60008060408385031215611b7257600080fd5b6000611b8085828601611a79565b9250506020611b9185828601611a79565b9150509250929050565b600080600060608486031215611bb057600080fd5b6000611bbe86828701611a79565b9350506020611bcf86828701611a79565b9250506040611be086828701611b21565b9150509250925092565b60008060008060808587031215611c0057600080fd5b6000611c0e87828801611a79565b9450506020611c1f87828801611a79565b9350506040611c3087828801611b21565b925050606085013567ffffffffffffffff811115611c4d57600080fd5b611c5987828801611acd565b91505092959194509250565b60008060408385031215611c7857600080fd5b6000611c8685828601611a79565b9250506020611c9785828601611a8e565b9150509250929050565b60008060408385031215611cb457600080fd5b6000611cc285828601611a79565b9250506020611cd385828601611b21565b9150509250929050565b600060208284031215611cef57600080fd5b6000611cfd84828501611aa3565b91505092915050565b600060208284031215611d1857600080fd5b6000611d2684828501611ab8565b91505092915050565b600060208284031215611d4157600080fd5b600082013567ffffffffffffffff811115611d5b57600080fd5b611d6784828501611af7565b91505092915050565b600060208284031215611d8257600080fd5b6000611d9084828501611b21565b91505092915050565b611da281612438565b82525050565b611db18161244a565b82525050565b6000611dc28261233a565b611dcc8185612350565b9350611ddc8185602086016124bb565b611de581612687565b840191505092915050565b6000611dfb82612345565b611e058185612361565b9350611e158185602086016124bb565b611e1e81612687565b840191505092915050565b6000611e3482612345565b611e3e8185612372565b9350611e4e8185602086016124bb565b80840191505092915050565b6000611e67603283612361565b9150611e7282612698565b604082019050919050565b6000611e8a602683612361565b9150611e95826126e7565b604082019050919050565b6000611ead602583612361565b9150611eb882612736565b604082019050919050565b6000611ed0601c83612361565b9150611edb82612785565b602082019050919050565b6000611ef3602483612361565b9150611efe826127ae565b604082019050919050565b6000611f16601983612361565b9150611f21826127fd565b602082019050919050565b6000611f39602983612361565b9150611f4482612826565b604082019050919050565b6000611f5c603e83612361565b9150611f6782612875565b604082019050919050565b6000611f7f602083612361565b9150611f8a826128c4565b602082019050919050565b6000611fa2602083612361565b9150611fad826128ed565b602082019050919050565b6000611fc5601883612361565b9150611fd082612916565b602082019050919050565b6000611fe8602183612361565b9150611ff38261293f565b604082019050919050565b600061200b602e83612361565b91506120168261298e565b604082019050919050565b61202a816124a2565b82525050565b600061203c8285611e29565b91506120488284611e29565b91508190509392505050565b60006020820190506120696000830184611d99565b92915050565b60006080820190506120846000830187611d99565b6120916020830186611d99565b61209e6040830185612021565b81810360608301526120b08184611db7565b905095945050505050565b60006020820190506120d06000830184611da8565b92915050565b600060208201905081810360008301526120f08184611df0565b905092915050565b6000602082019050818103600083015261211181611e5a565b9050919050565b6000602082019050818103600083015261213181611e7d565b9050919050565b6000602082019050818103600083015261215181611ea0565b9050919050565b6000602082019050818103600083015261217181611ec3565b9050919050565b6000602082019050818103600083015261219181611ee6565b9050919050565b600060208201905081810360008301526121b181611f09565b9050919050565b600060208201905081810360008301526121d181611f2c565b9050919050565b600060208201905081810360008301526121f181611f4f565b9050919050565b6000602082019050818103600083015261221181611f72565b9050919050565b6000602082019050818103600083015261223181611f95565b9050919050565b6000602082019050818103600083015261225181611fb8565b9050919050565b6000602082019050818103600083015261227181611fdb565b9050919050565b6000602082019050818103600083015261229181611ffe565b9050919050565b60006020820190506122ad6000830184612021565b92915050565b60006122bd6122ce565b90506122c98282612520565b919050565b6000604051905090565b600067ffffffffffffffff8211156122f3576122f2612658565b5b6122fc82612687565b9050602081019050919050565b600067ffffffffffffffff82111561232457612323612658565b5b61232d82612687565b9050602081019050919050565b600081519050919050565b600081519050919050565b600082825260208201905092915050565b600082825260208201905092915050565b600081905092915050565b6000612388826124a2565b9150612393836124a2565b9250827fffffffffffffffffffffffffffffffffffffffffffffffffffffffffffffffff038211156123c8576123c76125cb565b5b828201905092915050565b60006123de826124a2565b91506123e9836124a2565b9250826123f9576123f86125fa565b5b828204905092915050565b600061240f826124a2565b915061241a836124a2565b92508282101561242d5761242c6125cb565b5b828203905092915050565b600061244382612482565b9050919050565b60008115159050919050565b60007fffffffff0000000000000000000000000000000000000000000000000000000082169050919050565b600073ffffffffffffffffffffffffffffffffffffffff82169050919050565b6000819050919050565b82818337600083830152505050565b60005b838110156124d95780820151818401526020810190506124be565b838111156124e8576000848401525b50505050565b6000600282049050600182168061250657607f821691505b6020821081141561251a57612519612629565b5b50919050565b61252982612687565b810181811067ffffffffffffffff8211171561254857612547612658565b5b80604052505050565b600061255c826124a2565b91507fffffffffffffffffffffffffffffffffffffffffffffffffffffffffffffffff82141561258f5761258e6125cb565b5b600182019050919050565b60006125a5826124a2565b91506125b0836124a2565b9250826125c0576125bf6125fa565b5b828206905092915050565b7f4e487b7100000000000000000000000000000000000000000000000000000000600052601160045260246000fd5b7f4e487b7100000000000000000000000000000000000000000000000000000000600052601260045260246000fd5b7f4e487b7100000000000000000000000000000000000000000000000000000000600052602260045260246000fd5b7f4e487b7100000000000000000000000000000000000000000000000000000000600052604160045260246000fd5b6000601f19601f8301169050919050565b7f4552433732313a207472616e7366657220746f206e6f6e20455243373231526560008201527f63656976657220696d706c656d656e7465720000000000000000000000000000602082015250565b7f4f776e61626c653a206e6577206f776e657220697320746865207a65726f206160008201527f6464726573730000000000000000000000000000000000000000000000000000602082015250565b7f4552433732313a207472616e736665722066726f6d20696e636f72726563742060008201527f6f776e6572000000000000000000000000000000000000000000000000000000602082015250565b7f4552433732313a20746f6b656e20616c7265616479206d696e74656400000000600082015250565b7f4552433732313a207472616e7366657220746f20746865207a65726f2061646460008201527f7265737300000000000000000000000000000000000000000000000000000000602082015250565b7f4552433732313a20617070726f766520746f2063616c6c657200000000000000600082015250565b7f4552433732313a2061646472657373207a65726f206973206e6f74206120766160008201527f6c6964206f776e65720000000000000000000000000000000000000000000000602082015250565b7f4552433732313a20617070726f76652063616c6c6572206973206e6f7420746f60008201527f6b656e206f776e6572206e6f7220617070726f76656420666f7220616c6c0000602082015250565b7f4552433732313a206d696e7420746f20746865207a65726f2061646472657373600082015250565b7f4f776e61626c653a2063616c6c6572206973206e6f7420746865206f776e6572600082015250565b7f4552433732313a20696e76616c696420746f6b656e2049440000000000000000600082015250565b7f4552433732313a20617070726f76616c20746f2063757272656e74206f776e6560008201527f7200000000000000000000000000000000000000000000000000000000000000602082015250565b7f4552433732313a2063616c6c6572206973206e6f7420746f6b656e206f776e6560008201527f72206e6f7220617070726f766564000000000000000000000000000000000000602082015250565b6129e681612438565b81146129f157600080fd5b50565b6129fd8161244a565b8114612a0857600080fd5b50565b612a1481612456565b8114612a1f57600080fd5b50565b612a2b816124a2565b8114612a3657600080fd5b5056fea264697066735822122085443613674ec246299677abb78041cc7748cd13bf7728f2b953f04d32bceddf64736f6c63430008040033",
  "linkReferences": {},
  "deployedLinkReferences": {}
}