{
  "_format": "hh-sol-artifact-1",
  "contractName": "Reserve",
  "sourceName": "contracts/Reserve.sol",
  "abi": [
    {
      "inputs": [
        {
          "internalType": "address",
          "name": "_tokenAddress",
          "type": "address"
        }
      ],
      "stateMutability": "nonpayable",
      "type": "constructor"
    },
    {
      "anonymous": false,
      "inputs": [
        {
          "indexed": true,
          "internalType": "address",
          "name": "previousOwner",
          "type": "address"
        },
        {
          "indexed": true,
          "internalType": "address",
          "name": "newOwner",
          "type": "address"
        }
      ],
      "name": "OwnershipTransferred",
      "type": "event"
    },
    {
      "inputs": [],
      "name": "owner",
      "outputs": [
        {
          "internalType": "address",
          "name": "",
          "type": "address"
        }
      ],
      "stateMutability": "view",
      "type": "function"
    },
    {
      "inputs": [],
      "name": "renounceOwnership",
      "outputs": [],
      "stateMutability": "nonpayable",
      "type": "function"
    },
    {
      "inputs": [],
      "name": "token",
      "outputs": [
        {
          "internalType": "contract IERC20",
          "name": "",
          "type": "address"
        }
      ],
      "stateMutability": "view",
      "type": "function"
    },
    {
      "inputs": [
        {
          "internalType": "address",
          "name": "newOwner",
          "type": "address"
        }
      ],
      "name": "transferOwnership",
      "outputs": [],
      "stateMutability": "nonpayable",
      "type": "function"
    },
    {
      "inputs": [],
      "name": "unlockTime",
      "outputs": [
        {
          "internalType": "uint256",
          "name": "",
          "type": "uint256"
        }
      ],
      "stateMutability": "view",
      "type": "function"
    },
    {
      "inputs": [
        {
          "internalType": "address",
          "name": "_to",
          "type": "address"
        },
        {
          "internalType": "uint256",
          "name": "_value",
          "type": "uint256"
        }
      ],
      "name": "withdrawTo",
      "outputs": [],
      "stateMutability": "nonpayable",
      "type": "function"
    }
  ],
  "bytecode": "0x60a06040523480156200001157600080fd5b5060405162000d9538038062000d9583398181016040528101906200003791906200018f565b620000576200004b620000ac60201b60201c565b620000b460201b60201c565b8073ffffffffffffffffffffffffffffffffffffffff1660808173ffffffffffffffffffffffffffffffffffffffff1660601b8152505062dd7c00426200009f9190620001bb565b600181905550506200029f565b600033905090565b60008060009054906101000a900473ffffffffffffffffffffffffffffffffffffffff169050816000806101000a81548173ffffffffffffffffffffffffffffffffffffffff021916908373ffffffffffffffffffffffffffffffffffffffff1602179055508173ffffffffffffffffffffffffffffffffffffffff168173ffffffffffffffffffffffffffffffffffffffff167f8be0079c531659141344cd1fd0a4f28419497f9722a3daafe3b4186f6b6457e060405160405180910390a35050565b600081519050620001898162000285565b92915050565b600060208284031215620001a257600080fd5b6000620001b28482850162000178565b91505092915050565b6000620001c8826200024c565b9150620001d5836200024c565b9250827fffffffffffffffffffffffffffffffffffffffffffffffffffffffffffffffff038211156200020d576200020c62000256565b5b828201905092915050565b600062000225826200022c565b9050919050565b600073ffffffffffffffffffffffffffffffffffffffff82169050919050565b6000819050919050565b7f4e487b7100000000000000000000000000000000000000000000000000000000600052601160045260246000fd5b620002908162000218565b81146200029c57600080fd5b50565b60805160601c610ac9620002cc600039600081816101c2015281816102ac01526104250152610ac96000f3fe608060405234801561001057600080fd5b50600436106100625760003560e01c8063205c287814610067578063251c1aa314610083578063715018a6146100a15780638da5cb5b146100ab578063f2fde38b146100c9578063fc0c546a146100e5575b600080fd5b610081600480360381019061007c919061060e565b610103565b005b61008b61035c565b6040516100989190610877565b60405180910390f35b6100a9610362565b005b6100b3610376565b6040516100c09190610778565b60405180910390f35b6100e360048036038101906100de91906105e5565b61039f565b005b6100ed610423565b6040516100fa91906107bc565b60405180910390f35b61010b610447565b600154421161014f576040517f08c379a000000000000000000000000000000000000000000000000000000000815260040161014690610857565b60405180910390fd5b600073ffffffffffffffffffffffffffffffffffffffff168273ffffffffffffffffffffffffffffffffffffffff1614156101bf576040517f08c379a00000000000000000000000000000000000000000000000000000000081526004016101b690610817565b60405180910390fd5b807f000000000000000000000000000000000000000000000000000000000000000073ffffffffffffffffffffffffffffffffffffffff166370a08231306040518263ffffffff1660e01b81526004016102199190610778565b60206040518083038186803b15801561023157600080fd5b505afa158015610245573d6000803e3d6000fd5b505050506040513d601f19601f820116820180604052508101906102699190610673565b10156102aa576040517f08c379a00000000000000000000000000000000000000000000000000000000081526004016102a1906107d7565b60405180910390fd5b7f000000000000000000000000000000000000000000000000000000000000000073ffffffffffffffffffffffffffffffffffffffff1663a9059cbb83836040518363ffffffff1660e01b8152600401610305929190610793565b602060405180830381600087803b15801561031f57600080fd5b505af1158015610333573d6000803e3d6000fd5b505050506040513d601f19601f82011682018060405250810190610357919061064a565b505050565b60015481565b61036a610447565b61037460006104c5565b565b60008060009054906101000a900473ffffffffffffffffffffffffffffffffffffffff16905090565b6103a7610447565b600073ffffffffffffffffffffffffffffffffffffffff168173ffffffffffffffffffffffffffffffffffffffff161415610417576040517f08c379a000000000000000000000000000000000000000000000000000000000815260040161040e906107f7565b60405180910390fd5b610420816104c5565b50565b7f000000000000000000000000000000000000000000000000000000000000000081565b61044f610589565b73ffffffffffffffffffffffffffffffffffffffff1661046d610376565b73ffffffffffffffffffffffffffffffffffffffff16146104c3576040517f08c379a00000000000000000000000000000000000000000000000000000000081526004016104ba90610837565b60405180910390fd5b565b60008060009054906101000a900473ffffffffffffffffffffffffffffffffffffffff169050816000806101000a81548173ffffffffffffffffffffffffffffffffffffffff021916908373ffffffffffffffffffffffffffffffffffffffff1602179055508173ffffffffffffffffffffffffffffffffffffffff168173ffffffffffffffffffffffffffffffffffffffff167f8be0079c531659141344cd1fd0a4f28419497f9722a3daafe3b4186f6b6457e060405160405180910390a35050565b600033905090565b6000813590506105a081610a4e565b92915050565b6000815190506105b581610a65565b92915050565b6000813590506105ca81610a7c565b92915050565b6000815190506105df81610a7c565b92915050565b6000602082840312156105f757600080fd5b600061060584828501610591565b91505092915050565b6000806040838503121561062157600080fd5b600061062f85828601610591565b9250506020610640858286016105bb565b9150509250929050565b60006020828403121561065c57600080fd5b600061066a848285016105a6565b91505092915050565b60006020828403121561068557600080fd5b6000610693848285016105d0565b91505092915050565b6106a5816108a3565b82525050565b6106b4816108eb565b82525050565b60006106c7602183610892565b91506106d28261090f565b604082019050919050565b60006106ea602683610892565b91506106f58261095e565b604082019050919050565b600061070d602383610892565b9150610718826109ad565b604082019050919050565b6000610730602083610892565b915061073b826109fc565b602082019050919050565b6000610753601683610892565b915061075e82610a25565b602082019050919050565b610772816108e1565b82525050565b600060208201905061078d600083018461069c565b92915050565b60006040820190506107a8600083018561069c565b6107b56020830184610769565b9392505050565b60006020820190506107d160008301846106ab565b92915050565b600060208201905081810360008301526107f0816106ba565b9050919050565b60006020820190508181036000830152610810816106dd565b9050919050565b6000602082019050818103600083015261083081610700565b9050919050565b6000602082019050818103600083015261085081610723565b9050919050565b6000602082019050818103600083015261087081610746565b9050919050565b600060208201905061088c6000830184610769565b92915050565b600082825260208201905092915050565b60006108ae826108c1565b9050919050565b60008115159050919050565b600073ffffffffffffffffffffffffffffffffffffffff82169050919050565b6000819050919050565b60006108f6826108fd565b9050919050565b6000610908826108c1565b9050919050565b7f526576657273653a206578636565647320636f6e74726163742062616c616e6360008201527f6500000000000000000000000000000000000000000000000000000000000000602082015250565b7f4f776e61626c653a206e6577206f776e657220697320746865207a65726f206160008201527f6464726573730000000000000000000000000000000000000000000000000000602082015250565b7f526576657273653a205f746f206973206e6f7420612076616c6964206164647260008201527f6573730000000000000000000000000000000000000000000000000000000000602082015250565b7f4f776e61626c653a2063616c6c6572206973206e6f7420746865206f776e6572600082015250565b7f526576657273653a2043616e206e6f7420747261646500000000000000000000600082015250565b610a57816108a3565b8114610a6257600080fd5b50565b610a6e816108b5565b8114610a7957600080fd5b50565b610a85816108e1565b8114610a9057600080fd5b5056fea2646970667358221220f51ec4612469ff93a6ae0cc13bca623004bfe42646ae58301bf54e3612a940f864736f6c63430008040033",
  "linkReferences": {},
  "deployedLinkReferences": {}
}