{
  "_format": "hh-sol-artifact-1",
  "contractName": "Marketplace",
  "sourceName": "contracts/Marketplace.sol",
  "abi": [
    {
      "inputs": [
        {
          "internalType": "address",
          "name": "nftAddress_",
          "type": "address"
        },
        {
          "internalType": "uint256",
          "name": "feeDecimal_",
          "type": "uint256"
        },
        {
          "internalType": "uint256",
          "name": "feeRate_",
          "type": "uint256"
        },
        {
          "internalType": "address",
          "name": "feeRecipient_",
          "type": "address"
        }
      ],
      "stateMutability": "nonpayable",
      "type": "constructor"
    },
    {
      "anonymous": false,
      "inputs": [
        {
          "indexed": false,
          "internalType": "uint256",
          "name": "feeDecimal",
          "type": "uint256"
        },
        {
          "indexed": false,
          "internalType": "uint256",
          "name": "feeRate",
          "type": "uint256"
        }
      ],
      "name": "FeeRateUpdated",
      "type": "event"
    },
    {
      "anonymous": false,
      "inputs": [
        {
          "indexed": true,
          "internalType": "uint256",
          "name": "orderId",
          "type": "uint256"
        },
        {
          "indexed": true,
          "internalType": "address",
          "name": "seller",
          "type": "address"
        },
        {
          "indexed": true,
          "internalType": "uint256",
          "name": "tokenID",
          "type": "uint256"
        },
        {
          "indexed": false,
          "internalType": "address",
          "name": "paymentToken",
          "type": "address"
        },
        {
          "indexed": false,
          "internalType": "uint256",
          "name": "price",
          "type": "uint256"
        }
      ],
      "name": "OrderAdded",
      "type": "event"
    },
    {
      "anonymous": false,
      "inputs": [
        {
          "indexed": false,
          "internalType": "uint256",
          "name": "orderId",
          "type": "uint256"
        }
      ],
      "name": "OrderCancelled",
      "type": "event"
    },
    {
      "anonymous": false,
      "inputs": [
        {
          "indexed": true,
          "internalType": "uint256",
          "name": "orderId",
          "type": "uint256"
        },
        {
          "indexed": true,
          "internalType": "address",
          "name": "seller",
          "type": "address"
        },
        {
          "indexed": true,
          "internalType": "address",
          "name": "buyer",
          "type": "address"
        },
        {
          "indexed": false,
          "internalType": "uint256",
          "name": "tokenID",
          "type": "uint256"
        },
        {
          "indexed": false,
          "internalType": "address",
          "name": "paymentToken",
          "type": "address"
        },
        {
          "indexed": false,
          "internalType": "uint256",
          "name": "price",
          "type": "uint256"
        }
      ],
      "name": "OrderMatched",
      "type": "event"
    },
    {
      "anonymous": false,
      "inputs": [
        {
          "indexed": true,
          "internalType": "address",
          "name": "previousOwner",
          "type": "address"
        },
        {
          "indexed": true,
          "internalType": "address",
          "name": "newOwner",
          "type": "address"
        }
      ],
      "name": "OwnershipTransferred",
      "type": "event"
    },
    {
      "inputs": [
        {
          "internalType": "uint256",
          "name": "tokenID_",
          "type": "uint256"
        },
        {
          "internalType": "address",
          "name": "paymentToken_",
          "type": "address"
        },
        {
          "internalType": "uint256",
          "name": "price_",
          "type": "uint256"
        }
      ],
      "name": "addOrder",
      "outputs": [],
      "stateMutability": "nonpayable",
      "type": "function"
    },
    {
      "inputs": [
        {
          "internalType": "address",
          "name": "paymentToken_",
          "type": "address"
        }
      ],
      "name": "addPaymentToken",
      "outputs": [],
      "stateMutability": "nonpayable",
      "type": "function"
    },
    {
      "inputs": [
        {
          "internalType": "uint256",
          "name": "orderID_",
          "type": "uint256"
        }
      ],
      "name": "cancelOrder",
      "outputs": [],
      "stateMutability": "nonpayable",
      "type": "function"
    },
    {
      "inputs": [
        {
          "internalType": "uint256",
          "name": "orderID_",
          "type": "uint256"
        }
      ],
      "name": "executeOrder",
      "outputs": [],
      "stateMutability": "nonpayable",
      "type": "function"
    },
    {
      "inputs": [],
      "name": "feeDecimal",
      "outputs": [
        {
          "internalType": "uint256",
          "name": "",
          "type": "uint256"
        }
      ],
      "stateMutability": "view",
      "type": "function"
    },
    {
      "inputs": [],
      "name": "feeRate",
      "outputs": [
        {
          "internalType": "uint256",
          "name": "",
          "type": "uint256"
        }
      ],
      "stateMutability": "view",
      "type": "function"
    },
    {
      "inputs": [],
      "name": "feeRecipient",
      "outputs": [
        {
          "internalType": "address",
          "name": "",
          "type": "address"
        }
      ],
      "stateMutability": "view",
      "type": "function"
    },
    {
      "inputs": [
        {
          "internalType": "address",
          "name": "paymentToken_",
          "type": "address"
        }
      ],
      "name": "isPaymentTokenSupported",
      "outputs": [
        {
          "internalType": "bool",
          "name": "",
          "type": "bool"
        }
      ],
      "stateMutability": "view",
      "type": "function"
    },
    {
      "inputs": [
        {
          "internalType": "uint256",
          "name": "orderID_",
          "type": "uint256"
        },
        {
          "internalType": "address",
          "name": "seller_",
          "type": "address"
        }
      ],
      "name": "isSeller",
      "outputs": [
        {
          "internalType": "bool",
          "name": "",
          "type": "bool"
        }
      ],
      "stateMutability": "view",
      "type": "function"
    },
    {
      "inputs": [],
      "name": "nftContract",
      "outputs": [
        {
          "internalType": "contract IERC721",
          "name": "",
          "type": "address"
        }
      ],
      "stateMutability": "view",
      "type": "function"
    },
    {
      "inputs": [],
      "name": "owner",
      "outputs": [
        {
          "internalType": "address",
          "name": "",
          "type": "address"
        }
      ],
      "stateMutability": "view",
      "type": "function"
    },
    {
      "inputs": [],
      "name": "renounceOwnership",
      "outputs": [],
      "stateMutability": "nonpayable",
      "type": "function"
    },
    {
      "inputs": [
        {
          "internalType": "address",
          "name": "newOwner",
          "type": "address"
        }
      ],
      "name": "transferOwnership",
      "outputs": [],
      "stateMutability": "nonpayable",
      "type": "function"
    },
    {
      "inputs": [
        {
          "internalType": "uint256",
          "name": "feeDecimal_",
          "type": "uint256"
        },
        {
          "internalType": "uint256",
          "name": "feeRate_",
          "type": "uint256"
        }
      ],
      "name": "updateFeeRate",
      "outputs": [],
      "stateMutability": "nonpayable",
      "type": "function"
    },
    {
      "inputs": [
        {
          "internalType": "address",
          "name": "feeRecipient_",
          "type": "address"
        }
      ],
      "name": "updateFeeRecipient",
      "outputs": [],
      "stateMutability": "nonpayable",
      "type": "function"
    }
  ],
  "bytecode": "0x60a06040523480156200001157600080fd5b5060405162002e3738038062002e3783398181016040528101906200003791906200037f565b620000576200004b6200014560201b60201c565b6200014d60201b60201c565b600073ffffffffffffffffffffffffffffffffffffffff168473ffffffffffffffffffffffffffffffffffffffff161415620000ca576040517f08c379a0000000000000000000000000000000000000000000000000000000008152600401620000c190620004a4565b60405180910390fd5b620000db816200021160201b60201c565b620000ed8383620002c860201b60201c565b8373ffffffffffffffffffffffffffffffffffffffff1660808173ffffffffffffffffffffffffffffffffffffffff1660601b815250506200013b60016200033b60201b620012ff1760201c565b5050505062000841565b600033905090565b60008060009054906101000a900473ffffffffffffffffffffffffffffffffffffffff169050816000806101000a81548173ffffffffffffffffffffffffffffffffffffffff021916908373ffffffffffffffffffffffffffffffffffffffff1602179055508173ffffffffffffffffffffffffffffffffffffffff168173ffffffffffffffffffffffffffffffffffffffff167f8be0079c531659141344cd1fd0a4f28419497f9722a3daafe3b4186f6b6457e060405160405180910390a35050565b600073ffffffffffffffffffffffffffffffffffffffff168173ffffffffffffffffffffffffffffffffffffffff16141562000284576040517f08c379a00000000000000000000000000000000000000000000000000000000081526004016200027b9062000482565b60405180910390fd5b80600560006101000a81548173ffffffffffffffffffffffffffffffffffffffff021916908373ffffffffffffffffffffffffffffffffffffffff16021790555050565b600282620002d79190620004d7565b600a620002e591906200058f565b811062000329576040517f08c379a0000000000000000000000000000000000000000000000000000000008152600401620003209062000460565b60405180910390fd5b81600381905550806004819055505050565b6001816000016000828254019250508190555050565b60008151905062000362816200080d565b92915050565b600081519050620003798162000827565b92915050565b600080600080608085870312156200039657600080fd5b6000620003a68782880162000351565b9450506020620003b98782880162000368565b9350506040620003cc8782880162000368565b9250506060620003df8782880162000351565b91505092959194509250565b6000620003fa601c83620004c6565b9150620004078262000746565b602082019050919050565b600062000421602c83620004c6565b91506200042e826200076f565b604082019050919050565b600062000448602b83620004c6565b91506200045582620007be565b604082019050919050565b600060208201905081810360008301526200047b81620003eb565b9050919050565b600060208201905081810360008301526200049d8162000412565b9050919050565b60006020820190508181036000830152620004bf8162000439565b9050919050565b600082825260208201905092915050565b6000620004e48262000700565b9150620004f18362000700565b9250827fffffffffffffffffffffffffffffffffffffffffffffffffffffffffffffffff038211156200052957620005286200070a565b5b828201905092915050565b6000808291508390505b600185111562000586578086048111156200055e576200055d6200070a565b5b60018516156200056e5780820291505b80810290506200057e8562000739565b94506200053e565b94509492505050565b60006200059c8262000700565b9150620005a98362000700565b9250620005d87fffffffffffffffffffffffffffffffffffffffffffffffffffffffffffffffff8484620005e0565b905092915050565b600082620005f25760019050620006c5565b81620006025760009050620006c5565b81600181146200061b576002811462000626576200065c565b6001915050620006c5565b60ff8411156200063b576200063a6200070a565b5b8360020a9150848211156200065557620006546200070a565b5b50620006c5565b5060208310610133831016604e8410600b8410161715620006965782820a90508381111562000690576200068f6200070a565b5b620006c5565b620006a5848484600162000534565b92509050818404811115620006bf57620006be6200070a565b5b81810290505b9392505050565b6000620006d982620006e0565b9050919050565b600073ffffffffffffffffffffffffffffffffffffffff82169050919050565b6000819050919050565b7f4e487b7100000000000000000000000000000000000000000000000000000000600052601160045260246000fd5b60008160011c9050919050565b7f4e46544d61726b6574706c6163653a2062616420666565207261746500000000600082015250565b7f4e46544d61726b6574706c6163653a206665655265636970656e745f2069732060008201527f7a65726f20616464726573730000000000000000000000000000000000000000602082015250565b7f4e46544d61726b6574706c6163653a206e6674416464726573735f206973207a60008201527f65726f2061646472657373000000000000000000000000000000000000000000602082015250565b6200081881620006cc565b81146200082457600080fd5b50565b620008328162000700565b81146200083e57600080fd5b50565b60805160601c6125ad6200088a600039600081816105cb01528181610a7801528181610cb501528181610dcb01528181610e9101528181611145015261124501526125ad6000f3fe608060405234801561001057600080fd5b50600436106100f55760003560e01c80638da5cb5b11610097578063c46142c511610066578063c46142c51461024c578063d56d229d14610268578063f160d36914610286578063f2fde38b146102a2576100f5565b80638da5cb5b146101c457806394f61134146101e2578063978bbdb9146101fe578063be91dc0f1461021c576100f5565b8063514fcac7116100d3578063514fcac7146101645780636757ef9c14610180578063715018a61461019c5780637e11b31f146101a6576100f5565b80631da664e8146100fa578063469048401461012a5780634a7dc8e014610148575b600080fd5b610114600480360381019061010f9190611741565b6102be565b6040516101219190611b76565b60405180910390f35b6101326102db565b60405161013f9190611ad2565b60405180910390f35b610162600480360381019061015d9190611741565b610301565b005b61017e600480360381019061017991906117bc565b6103cf565b005b61019a60048036038101906101959190611870565b61069c565b005b6101a46106b2565b005b6101ae6106c6565b6040516101bb9190611d6c565b60405180910390f35b6101cc6106cc565b6040516101d99190611ad2565b60405180910390f35b6101fc60048036038101906101f791906117bc565b6106f5565b005b610206610bd7565b6040516102139190611d6c565b60405180910390f35b610236600480360381019061023191906117e5565b610bdd565b6040516102439190611b76565b60405180910390f35b61026660048036038101906102619190611821565b610c4c565b005b610270611243565b60405161027d9190611b91565b60405180910390f35b6102a0600480360381019061029b9190611741565b611267565b005b6102bc60048036038101906102b79190611741565b61127b565b005b60006102d482600661131590919063ffffffff16565b9050919050565b600560009054906101000a900473ffffffffffffffffffffffffffffffffffffffff1681565b610309611345565b600073ffffffffffffffffffffffffffffffffffffffff168173ffffffffffffffffffffffffffffffffffffffff161415610379576040517f08c379a000000000000000000000000000000000000000000000000000000000815260040161037090611d0c565b60405180910390fd5b61038d8160066113c390919063ffffffff16565b6103cc576040517f08c379a00000000000000000000000000000000000000000000000000000000081526004016103c390611cac565b60405180910390fd5b50565b80600073ffffffffffffffffffffffffffffffffffffffff166002600083815260200190815260200160002060010160009054906101000a900473ffffffffffffffffffffffffffffffffffffffff1673ffffffffffffffffffffffffffffffffffffffff1614610475576040517f08c379a000000000000000000000000000000000000000000000000000000000815260040161046c90611d4c565b60405180910390fd5b60006002600084815260200190815260200160002090506104946113f3565b73ffffffffffffffffffffffffffffffffffffffff168160000160009054906101000a900473ffffffffffffffffffffffffffffffffffffffff1673ffffffffffffffffffffffffffffffffffffffff1614610525576040517f08c379a000000000000000000000000000000000000000000000000000000000815260040161051c90611bec565b60405180910390fd5b60008160020154905060026000858152602001908152602001600020600080820160006101000a81549073ffffffffffffffffffffffffffffffffffffffff02191690556001820160006101000a81549073ffffffffffffffffffffffffffffffffffffffff021916905560028201600090556003820160006101000a81549073ffffffffffffffffffffffffffffffffffffffff0219169055600482016000905550507f000000000000000000000000000000000000000000000000000000000000000073ffffffffffffffffffffffffffffffffffffffff166323b872dd3061060e6113f3565b846040518463ffffffff1660e01b815260040161062d93929190611b16565b600060405180830381600087803b15801561064757600080fd5b505af115801561065b573d6000803e3d6000fd5b505050507f61b9399f2f0f32ca39ce8d7be32caed5ec22fe07a6daba3a467ed479ec6065828460405161068e9190611d6c565b60405180910390a150505050565b6106a4611345565b6106ae82826113fb565b5050565b6106ba611345565b6106c46000611467565b565b60035481565b60008060009054906101000a900473ffffffffffffffffffffffffffffffffffffffff16905090565b80600073ffffffffffffffffffffffffffffffffffffffff166002600083815260200190815260200160002060010160009054906101000a900473ffffffffffffffffffffffffffffffffffffffff1673ffffffffffffffffffffffffffffffffffffffff161461079b576040517f08c379a000000000000000000000000000000000000000000000000000000000815260040161079290611d4c565b60405180910390fd5b6107ac826107a76113f3565b610bdd565b156107ec576040517f08c379a00000000000000000000000000000000000000000000000000000000081526004016107e390611bcc565b60405180910390fd5b6000600260008481526020019081526020016000209050600081600401541161084a576040517f08c379a000000000000000000000000000000000000000000000000000000000815260040161084190611bac565b60405180910390fd5b6108526113f3565b8160010160006101000a81548173ffffffffffffffffffffffffffffffffffffffff021916908373ffffffffffffffffffffffffffffffffffffffff160217905550600061089f8461152b565b90506000811115610988578160030160009054906101000a900473ffffffffffffffffffffffffffffffffffffffff1673ffffffffffffffffffffffffffffffffffffffff166323b872dd6108f26113f3565b600560009054906101000a900473ffffffffffffffffffffffffffffffffffffffff16846040518463ffffffff1660e01b815260040161093493929190611b16565b602060405180830381600087803b15801561094e57600080fd5b505af1158015610962573d6000803e3d6000fd5b505050506040513d601f19601f820116820180604052508101906109869190611793565b505b8160030160009054906101000a900473ffffffffffffffffffffffffffffffffffffffff1673ffffffffffffffffffffffffffffffffffffffff166323b872dd6109d06113f3565b8460000160009054906101000a900473ffffffffffffffffffffffffffffffffffffffff16848660040154610a059190612021565b6040518463ffffffff1660e01b8152600401610a2393929190611b16565b602060405180830381600087803b158015610a3d57600080fd5b505af1158015610a51573d6000803e3d6000fd5b505050506040513d601f19601f82011682018060405250810190610a759190611793565b507f000000000000000000000000000000000000000000000000000000000000000073ffffffffffffffffffffffffffffffffffffffff166323b872dd30610abb6113f3565b85600201546040518463ffffffff1660e01b8152600401610ade93929190611b16565b600060405180830381600087803b158015610af857600080fd5b505af1158015610b0c573d6000803e3d6000fd5b50505050610b186113f3565b73ffffffffffffffffffffffffffffffffffffffff168260000160009054906101000a900473ffffffffffffffffffffffffffffffffffffffff1673ffffffffffffffffffffffffffffffffffffffff16857fd92904f74973e583bd5940ae2a3a1a28fa8a41e9e9233efe6eb60fc6d053652285600201548660030160009054906101000a900473ffffffffffffffffffffffffffffffffffffffff168760040154604051610bc993929190611d87565b60405180910390a450505050565b60045481565b60008173ffffffffffffffffffffffffffffffffffffffff166002600085815260200190815260200160002060000160009054906101000a900473ffffffffffffffffffffffffffffffffffffffff1673ffffffffffffffffffffffffffffffffffffffff1614905092915050565b81610c56816102be565b610c95576040517f08c379a0000000000000000000000000000000000000000000000000000000008152600401610c8c90611c4c565b60405180910390fd5b610c9d6113f3565b73ffffffffffffffffffffffffffffffffffffffff167f000000000000000000000000000000000000000000000000000000000000000073ffffffffffffffffffffffffffffffffffffffff16636352211e866040518263ffffffff1660e01b8152600401610d0c9190611d6c565b60206040518083038186803b158015610d2457600080fd5b505afa158015610d38573d6000803e3d6000fd5b505050506040513d601f19601f82011682018060405250810190610d5c919061176a565b73ffffffffffffffffffffffffffffffffffffffff1614610db2576040517f08c379a0000000000000000000000000000000000000000000000000000000008152600401610da990611d2c565b60405180910390fd5b3073ffffffffffffffffffffffffffffffffffffffff167f000000000000000000000000000000000000000000000000000000000000000073ffffffffffffffffffffffffffffffffffffffff1663081812fc866040518263ffffffff1660e01b8152600401610e229190611d6c565b60206040518083038186803b158015610e3a57600080fd5b505afa158015610e4e573d6000803e3d6000fd5b505050506040513d601f19601f82011682018060405250810190610e72919061176a565b73ffffffffffffffffffffffffffffffffffffffff161480610f4257507f000000000000000000000000000000000000000000000000000000000000000073ffffffffffffffffffffffffffffffffffffffff1663e985e9c5610ed36113f3565b306040518363ffffffff1660e01b8152600401610ef1929190611aed565b60206040518083038186803b158015610f0957600080fd5b505afa158015610f1d573d6000803e3d6000fd5b505050506040513d601f19601f82011682018060405250810190610f419190611793565b5b610f81576040517f08c379a0000000000000000000000000000000000000000000000000000000008152600401610f7890611c6c565b60405180910390fd5b6000821415610fc5576040517f08c379a0000000000000000000000000000000000000000000000000000000008152600401610fbc90611c8c565b60405180910390fd5b6000610fd16001611598565b90506040518060a00160405280610fe66113f3565b73ffffffffffffffffffffffffffffffffffffffff168152602001600073ffffffffffffffffffffffffffffffffffffffff1681526020018681526020018573ffffffffffffffffffffffffffffffffffffffff168152602001848152506002600083815260200190815260200160002060008201518160000160006101000a81548173ffffffffffffffffffffffffffffffffffffffff021916908373ffffffffffffffffffffffffffffffffffffffff16021790555060208201518160010160006101000a81548173ffffffffffffffffffffffffffffffffffffffff021916908373ffffffffffffffffffffffffffffffffffffffff1602179055506040820151816002015560608201518160030160006101000a81548173ffffffffffffffffffffffffffffffffffffffff021916908373ffffffffffffffffffffffffffffffffffffffff160217905550608082015181600401559050507f000000000000000000000000000000000000000000000000000000000000000073ffffffffffffffffffffffffffffffffffffffff166323b872dd6111876113f3565b30886040518463ffffffff1660e01b81526004016111a793929190611b16565b600060405180830381600087803b1580156111c157600080fd5b505af11580156111d5573d6000803e3d6000fd5b50505050846111e26113f3565b73ffffffffffffffffffffffffffffffffffffffff16827f2a40b778ad2a0e665f93ad917831cd03068b829743c6f6a350518360e2dd97df878760405161122a929190611b4d565b60405180910390a461123c60016112ff565b5050505050565b7f000000000000000000000000000000000000000000000000000000000000000081565b61126f611345565b611278816115a6565b50565b611283611345565b600073ffffffffffffffffffffffffffffffffffffffff168173ffffffffffffffffffffffffffffffffffffffff1614156112f3576040517f08c379a00000000000000000000000000000000000000000000000000000000081526004016112ea90611c0c565b60405180910390fd5b6112fc81611467565b50565b6001816000016000828254019250508190555050565b600061133d836000018373ffffffffffffffffffffffffffffffffffffffff1660001b61165a565b905092915050565b61134d6113f3565b73ffffffffffffffffffffffffffffffffffffffff1661136b6106cc565b73ffffffffffffffffffffffffffffffffffffffff16146113c1576040517f08c379a00000000000000000000000000000000000000000000000000000000081526004016113b890611ccc565b60405180910390fd5b565b60006113eb836000018373ffffffffffffffffffffffffffffffffffffffff1660001b61167d565b905092915050565b600033905090565b6002826114089190611dcf565b600a6114149190611ea9565b8110611455576040517f08c379a000000000000000000000000000000000000000000000000000000000815260040161144c90611c2c565b60405180910390fd5b81600381905550806004819055505050565b60008060009054906101000a900473ffffffffffffffffffffffffffffffffffffffff169050816000806101000a81548173ffffffffffffffffffffffffffffffffffffffff021916908373ffffffffffffffffffffffffffffffffffffffff1602179055508173ffffffffffffffffffffffffffffffffffffffff168173ffffffffffffffffffffffffffffffffffffffff167f8be0079c531659141344cd1fd0a4f28419497f9722a3daafe3b4186f6b6457e060405160405180910390a35050565b60008060026000848152602001908152602001600020905060006004541415611558576000915050611593565b60026003546115679190611dcf565b600a6115739190611ea9565b81600401546004546115859190611fc7565b61158f9190611e25565b9150505b919050565b600081600001549050919050565b600073ffffffffffffffffffffffffffffffffffffffff168173ffffffffffffffffffffffffffffffffffffffff161415611616576040517f08c379a000000000000000000000000000000000000000000000000000000000815260040161160d90611cec565b60405180910390fd5b80600560006101000a81548173ffffffffffffffffffffffffffffffffffffffff021916908373ffffffffffffffffffffffffffffffffffffffff16021790555050565b600080836001016000848152602001908152602001600020541415905092915050565b6000611689838361165a565b6116e25782600001829080600181540180825580915050600190039060005260206000200160009091909190915055826000018054905083600101600084815260200190815260200160002081905550600190506116e7565b600090505b92915050565b6000813590506116fc81612532565b92915050565b60008151905061171181612532565b92915050565b60008151905061172681612549565b92915050565b60008135905061173b81612560565b92915050565b60006020828403121561175357600080fd5b6000611761848285016116ed565b91505092915050565b60006020828403121561177c57600080fd5b600061178a84828501611702565b91505092915050565b6000602082840312156117a557600080fd5b60006117b384828501611717565b91505092915050565b6000602082840312156117ce57600080fd5b60006117dc8482850161172c565b91505092915050565b600080604083850312156117f857600080fd5b60006118068582860161172c565b9250506020611817858286016116ed565b9150509250929050565b60008060006060848603121561183657600080fd5b60006118448682870161172c565b9350506020611855868287016116ed565b92505060406118668682870161172c565b9150509250925092565b6000806040838503121561188357600080fd5b60006118918582860161172c565b92505060206118a28582860161172c565b9150509250929050565b6118b581612055565b82525050565b6118c481612067565b82525050565b6118d38161209d565b82525050565b60006118e6601f83611dbe565b91506118f18261212c565b602082019050919050565b6000611909602e83611dbe565b915061191482612155565b604082019050919050565b600061192c602683611dbe565b9150611937826121a4565b604082019050919050565b600061194f602683611dbe565b915061195a826121f3565b604082019050919050565b6000611972601c83611dbe565b915061197d82612242565b602082019050919050565b6000611995602783611dbe565b91506119a08261226b565b604082019050919050565b60006119b8604183611dbe565b91506119c3826122ba565b606082019050919050565b60006119db602c83611dbe565b91506119e68261232f565b604082019050919050565b60006119fe602183611dbe565b9150611a098261237e565b604082019050919050565b6000611a21602083611dbe565b9150611a2c826123cd565b602082019050919050565b6000611a44602c83611dbe565b9150611a4f826123f6565b604082019050919050565b6000611a67602d83611dbe565b9150611a7282612445565b604082019050919050565b6000611a8a602c83611dbe565b9150611a9582612494565b604082019050919050565b6000611aad602483611dbe565b9150611ab8826124e3565b604082019050919050565b611acc81612093565b82525050565b6000602082019050611ae760008301846118ac565b92915050565b6000604082019050611b0260008301856118ac565b611b0f60208301846118ac565b9392505050565b6000606082019050611b2b60008301866118ac565b611b3860208301856118ac565b611b456040830184611ac3565b949350505050565b6000604082019050611b6260008301856118ac565b611b6f6020830184611ac3565b9392505050565b6000602082019050611b8b60008301846118bb565b92915050565b6000602082019050611ba660008301846118ca565b92915050565b60006020820190508181036000830152611bc5816118d9565b9050919050565b60006020820190508181036000830152611be5816118fc565b9050919050565b60006020820190508181036000830152611c058161191f565b9050919050565b60006020820190508181036000830152611c2581611942565b9050919050565b60006020820190508181036000830152611c4581611965565b9050919050565b60006020820190508181036000830152611c6581611988565b9050919050565b60006020820190508181036000830152611c85816119ab565b9050919050565b60006020820190508181036000830152611ca5816119ce565b9050919050565b60006020820190508181036000830152611cc5816119f1565b9050919050565b60006020820190508181036000830152611ce581611a14565b9050919050565b60006020820190508181036000830152611d0581611a37565b9050919050565b60006020820190508181036000830152611d2581611a5a565b9050919050565b60006020820190508181036000830152611d4581611a7d565b9050919050565b60006020820190508181036000830152611d6581611aa0565b9050919050565b6000602082019050611d816000830184611ac3565b92915050565b6000606082019050611d9c6000830186611ac3565b611da960208301856118ac565b611db66040830184611ac3565b949350505050565b600082825260208201905092915050565b6000611dda82612093565b9150611de583612093565b9250827fffffffffffffffffffffffffffffffffffffffffffffffffffffffffffffffff03821115611e1a57611e196120c1565b5b828201905092915050565b6000611e3082612093565b9150611e3b83612093565b925082611e4b57611e4a6120f0565b5b828204905092915050565b6000808291508390505b6001851115611ea057808604811115611e7c57611e7b6120c1565b5b6001851615611e8b5780820291505b8081029050611e998561211f565b9450611e60565b94509492505050565b6000611eb482612093565b9150611ebf83612093565b9250611eec7fffffffffffffffffffffffffffffffffffffffffffffffffffffffffffffffff8484611ef4565b905092915050565b600082611f045760019050611fc0565b81611f125760009050611fc0565b8160018114611f285760028114611f3257611f61565b6001915050611fc0565b60ff841115611f4457611f436120c1565b5b8360020a915084821115611f5b57611f5a6120c1565b5b50611fc0565b5060208310610133831016604e8410600b8410161715611f965782820a905083811115611f9157611f906120c1565b5b611fc0565b611fa38484846001611e56565b92509050818404811115611fba57611fb96120c1565b5b81810290505b9392505050565b6000611fd282612093565b9150611fdd83612093565b9250817fffffffffffffffffffffffffffffffffffffffffffffffffffffffffffffffff0483118215151615612016576120156120c1565b5b828202905092915050565b600061202c82612093565b915061203783612093565b92508282101561204a576120496120c1565b5b828203905092915050565b600061206082612073565b9050919050565b60008115159050919050565b600073ffffffffffffffffffffffffffffffffffffffff82169050919050565b6000819050919050565b60006120a8826120af565b9050919050565b60006120ba82612073565b9050919050565b7f4e487b7100000000000000000000000000000000000000000000000000000000600052601160045260246000fd5b7f4e487b7100000000000000000000000000000000000000000000000000000000600052601260045260246000fd5b60008160011c9050919050565b7f4e46544d61726b6574706c6163653a206f72646572206e6f7420666f756e6400600082015250565b7f4e46544d61726b6574706c6163653a206275796572206d75737420626520646960008201527f66666572656e742073656c6c6572000000000000000000000000000000000000602082015250565b7f4e46544d61726b6574706c6163653a206d757374206265206f776e6572206f6660008201527f20746f6b656e0000000000000000000000000000000000000000000000000000602082015250565b7f4f776e61626c653a206e6577206f776e657220697320746865207a65726f206160008201527f6464726573730000000000000000000000000000000000000000000000000000602082015250565b7f4e46544d61726b6574706c6163653a2062616420666565207261746500000000600082015250565b7f4e46544d61726b6574706c6163653a20756e737570706f7274207061796d656e60008201527f7420746f6b656e00000000000000000000000000000000000000000000000000602082015250565b7f4e46544d61726b6574706c6163653a2054686520636f6e74726163742069732060008201527f756e617574686f72697a656420746f206d616e616765207468697320746f6b6560208201527f6e00000000000000000000000000000000000000000000000000000000000000604082015250565b7f4e46544d61726b6574706c6163653a207072696365206d75737420626520677260008201527f6561746572207468616e20300000000000000000000000000000000000000000602082015250565b7f4e46544d61726b6574506c6163653a20616c726561647920737570706f72746560008201527f6400000000000000000000000000000000000000000000000000000000000000602082015250565b7f4f776e61626c653a2063616c6c6572206973206e6f7420746865206f776e6572600082015250565b7f4e46544d61726b6574706c6163653a206665655265636970656e745f2069732060008201527f7a65726f20616464726573730000000000000000000000000000000000000000602082015250565b7f4e46544d61726b6574506c6163653a207061796d656e74546f6b656e5f20697360008201527f207a65726f206164647265737300000000000000000000000000000000000000602082015250565b7f4e46544d61726b6574706c6163653a2073656e646572206973206e6f74206f7760008201527f6e6572206f6620746f6b656e0000000000000000000000000000000000000000602082015250565b7f4e46544d61726b6574706c6163653a20746f6b656e2068617665206265656e2060008201527f736f6c6400000000000000000000000000000000000000000000000000000000602082015250565b61253b81612055565b811461254657600080fd5b50565b61255281612067565b811461255d57600080fd5b50565b61256981612093565b811461257457600080fd5b5056fea26469706673582212200783b12a384bb918bf482863dafdee644c34f1b7244d11bd07ba60b4c6db7f0d64736f6c63430008040033",
  "linkReferences": {},
  "deployedLinkReferences": {}
}